{
    "contractName": "Admin",
    "abi": [
        {
            "inputs": [],
            "stateMutability": "nonpayable",
            "type": "constructor"
        },
        {
            "anonymous": false,
            "inputs": [
                {
                    "indexed": true,
                    "internalType": "address",
                    "name": "admin",
                    "type": "address"
                }
            ],
            "name": "AdminRemoved",
            "type": "event"
        },
        {
            "anonymous": false,
            "inputs": [
                {
                    "indexed": true,
                    "internalType": "address",
                    "name": "admin",
                    "type": "address"
                }
            ],
            "name": "NewAdmin",
            "type": "event"
        },
        {
            "anonymous": false,
            "inputs": [
                {
                    "indexed": true,
                    "internalType": "address",
                    "name": "previousOwner",
                    "type": "address"
                },
                {
                    "indexed": true,
                    "internalType": "address",
                    "name": "newOwner",
                    "type": "address"
                }
            ],
            "name": "OwnershipTransferred",
            "type": "event"
        },
        {
            "inputs": [
                {
                    "internalType": "address",
                    "name": "",
                    "type": "address"
                }
            ],
            "name": "admin",
            "outputs": [
                {
                    "internalType": "bool",
                    "name": "",
                    "type": "bool"
                }
            ],
            "stateMutability": "view",
            "type": "function"
        },
        {
            "inputs": [
                {
                    "internalType": "address payable",
                    "name": "_newadmin",
                    "type": "address"
                }
            ],
            "name": "makeNewAdmin",
            "outputs": [],
            "stateMutability": "nonpayable",
            "type": "function"
        },
        {
            "inputs": [
                {
                    "internalType": "address payable",
                    "name": "_oldadmin",
                    "type": "address"
                }
            ],
            "name": "makeRemoveAdmin",
            "outputs": [],
            "stateMutability": "nonpayable",
            "type": "function"
        },
        {
            "inputs": [],
            "name": "owner",
            "outputs": [
                {
                    "internalType": "address payable",
                    "name": "",
                    "type": "address"
                }
            ],
            "stateMutability": "view",
            "type": "function"
        },
        {
            "inputs": [
                {
                    "internalType": "address payable",
                    "name": "newOwner",
                    "type": "address"
                }
            ],
            "name": "transferOwnership",
            "outputs": [],
            "stateMutability": "nonpayable",
            "type": "function"
        }
    ],
    "bytecode": "608060405234801561001057600080fd5b50610019610073565b600080546001600160a01b0319166001600160a01b03929092169190911781556001908190610046610073565b6001600160a01b031681526020810191909152604001600020805460ff1916911515919091179055610077565b3390565b610346806100866000396000f3fe608060405234801561001057600080fd5b50600436106100575760003560e01c806363a846f81461005c57806369ed1e0a1461008557806370a0966b1461009a5780638da5cb5b146100ad578063f2fde38b146100c2575b600080fd5b61006f61006a3660046102b6565b6100d5565b60405161007c91906102ed565b60405180910390f35b6100986100933660046102b6565b6100ea565b005b6100986100a83660046102b6565b61017f565b6100b561020e565b60405161007c91906102d9565b6100986100d03660046102b6565b61021d565b60016020526000908152604090205460ff1681565b6000546001600160a01b03166100fe6102b2565b6001600160a01b03161461011157600080fd5b6001600160a01b03811661012457600080fd5b6040516001600160a01b038216907f71614071b88dee5e0b2ae578a9dd7b2ebbe9ae832ba419dc0242cd065a290b6c90600090a26001600160a01b03166000908152600160208190526040909120805460ff19169091179055565b6000546001600160a01b03166101936102b2565b6001600160a01b0316146101a657600080fd5b6001600160a01b0381166101b957600080fd5b6040516001600160a01b038216907fa3b62bc36326052d97ea62d63c3d60308ed4c3ea8ac079dd8499f1e9c4f80c0f90600090a26001600160a01b03166000908152600160205260409020805460ff19169055565b6000546001600160a01b031681565b6000546001600160a01b03166102316102b2565b6001600160a01b03161461024457600080fd5b6001600160a01b03811661025757600080fd5b600080546040516001600160a01b03808516939216917f8be0079c531659141344cd1fd0a4f28419497f9722a3daafe3b4186f6b6457e091a3600080546001600160a01b0319166001600160a01b0392909216919091179055565b3390565b6000602082840312156102c7578081fd5b81356102d2816102f8565b9392505050565b6001600160a01b0391909116815260200190565b901515815260200190565b6001600160a01b038116811461030d57600080fd5b5056fea2646970667358221220e28afdc3b1ed8563bcf972e34e76e8197b6bc6ee210cf8cf40df6b16bf4fc3d464736f6c63430008000033",
    "sourcePath": "c:/Users/STC/Documents/GitHub/goal-crypto/contracts/Votacion/fan.sol",
    "compiler": {
        "name": "solc",
        "version": "0.8.0+commit.c7dfd78e"
    },
    "functionHashes": {
        "admin(address)": "63a846f8",
        "makeNewAdmin(address)": "69ed1e0a",
        "makeRemoveAdmin(address)": "70a0966b",
        "owner()": "8da5cb5b",
        "transferOwnership(address)": "f2fde38b"
    },
    "gasEstimates": {
        "creation": {
            "codeDepositCost": "167600",
            "executionCost": "infinite",
            "totalCost": "infinite"
        },
        "external": {
            "admin(address)": "1236",
            "makeNewAdmin(address)": "23303",
            "makeRemoveAdmin(address)": "23307",
            "owner()": "1114",
            "transferOwnership(address)": "24505"
        }
    }
}