{
    "contractName": "Voter",
    "abi": [
        {
            "inputs": [],
            "stateMutability": "nonpayable",
            "type": "constructor"
        },
        {
            "anonymous": false,
            "inputs": [
                {
                    "indexed": true,
                    "internalType": "address",
                    "name": "admin",
                    "type": "address"
                }
            ],
            "name": "AdminRemoved",
            "type": "event"
        },
        {
            "anonymous": false,
            "inputs": [
                {
                    "indexed": true,
                    "internalType": "address",
                    "name": "admin",
                    "type": "address"
                }
            ],
            "name": "NewAdmin",
            "type": "event"
        },
        {
            "anonymous": false,
            "inputs": [
                {
                    "indexed": true,
                    "internalType": "address",
                    "name": "previousOwner",
                    "type": "address"
                },
                {
                    "indexed": true,
                    "internalType": "address",
                    "name": "newOwner",
                    "type": "address"
                }
            ],
            "name": "OwnershipTransferred",
            "type": "event"
        },
        {
            "stateMutability": "payable",
            "type": "fallback"
        },
        {
            "inputs": [],
            "name": "ReIniciar",
            "outputs": [
                {
                    "internalType": "bool",
                    "name": "",
                    "type": "bool"
                }
            ],
            "stateMutability": "nonpayable",
            "type": "function"
        },
        {
            "inputs": [
                {
                    "internalType": "address",
                    "name": "",
                    "type": "address"
                }
            ],
            "name": "admin",
            "outputs": [
                {
                    "internalType": "bool",
                    "name": "",
                    "type": "bool"
                }
            ],
            "stateMutability": "view",
            "type": "function"
        },
        {
            "inputs": [
                {
                    "internalType": "address",
                    "name": "",
                    "type": "address"
                }
            ],
            "name": "fans",
            "outputs": [
                {
                    "internalType": "bool",
                    "name": "registrado",
                    "type": "bool"
                }
            ],
            "stateMutability": "view",
            "type": "function"
        },
        {
            "inputs": [],
            "name": "fin",
            "outputs": [
                {
                    "internalType": "uint256",
                    "name": "",
                    "type": "uint256"
                }
            ],
            "stateMutability": "view",
            "type": "function"
        },
        {
            "inputs": [],
            "name": "ganador",
            "outputs": [
                {
                    "internalType": "uint256",
                    "name": "",
                    "type": "uint256"
                }
            ],
            "stateMutability": "view",
            "type": "function"
        },
        {
            "inputs": [
                {
                    "internalType": "uint256",
                    "name": "",
                    "type": "uint256"
                }
            ],
            "name": "items",
            "outputs": [
                {
                    "internalType": "bool",
                    "name": "",
                    "type": "bool"
                }
            ],
            "stateMutability": "view",
            "type": "function"
        },
        {
            "inputs": [
                {
                    "internalType": "address",
                    "name": "_fan",
                    "type": "address"
                }
            ],
            "name": "largoFanItems",
            "outputs": [
                {
                    "internalType": "uint256",
                    "name": "",
                    "type": "uint256"
                }
            ],
            "stateMutability": "view",
            "type": "function"
        },
        {
            "inputs": [],
            "name": "largoItems",
            "outputs": [
                {
                    "internalType": "uint256",
                    "name": "",
                    "type": "uint256"
                }
            ],
            "stateMutability": "view",
            "type": "function"
        },
        {
            "inputs": [
                {
                    "internalType": "address payable",
                    "name": "_newadmin",
                    "type": "address"
                }
            ],
            "name": "makeNewAdmin",
            "outputs": [],
            "stateMutability": "nonpayable",
            "type": "function"
        },
        {
            "inputs": [
                {
                    "internalType": "address payable",
                    "name": "_oldadmin",
                    "type": "address"
                }
            ],
            "name": "makeRemoveAdmin",
            "outputs": [],
            "stateMutability": "nonpayable",
            "type": "function"
        },
        {
            "inputs": [],
            "name": "owner",
            "outputs": [
                {
                    "internalType": "address payable",
                    "name": "",
                    "type": "address"
                }
            ],
            "stateMutability": "view",
            "type": "function"
        },
        {
            "inputs": [],
            "name": "pool",
            "outputs": [
                {
                    "internalType": "uint256",
                    "name": "",
                    "type": "uint256"
                }
            ],
            "stateMutability": "view",
            "type": "function"
        },
        {
            "inputs": [],
            "name": "reclamar",
            "outputs": [
                {
                    "internalType": "uint256",
                    "name": "",
                    "type": "uint256"
                }
            ],
            "stateMutability": "nonpayable",
            "type": "function"
        },
        {
            "inputs": [],
            "name": "redimBNB",
            "outputs": [
                {
                    "internalType": "uint256",
                    "name": "",
                    "type": "uint256"
                }
            ],
            "stateMutability": "nonpayable",
            "type": "function"
        },
        {
            "inputs": [
                {
                    "internalType": "uint256",
                    "name": "_value",
                    "type": "uint256"
                }
            ],
            "name": "redimToken",
            "outputs": [
                {
                    "internalType": "uint256",
                    "name": "",
                    "type": "uint256"
                }
            ],
            "stateMutability": "nonpayable",
            "type": "function"
        },
        {
            "inputs": [
                {
                    "internalType": "uint256",
                    "name": "_item",
                    "type": "uint256"
                }
            ],
            "name": "setGanador",
            "outputs": [
                {
                    "internalType": "uint256",
                    "name": "",
                    "type": "uint256"
                }
            ],
            "stateMutability": "nonpayable",
            "type": "function"
        },
        {
            "inputs": [
                {
                    "internalType": "address",
                    "name": "_tokebp20",
                    "type": "address"
                }
            ],
            "name": "setToken",
            "outputs": [
                {
                    "internalType": "address",
                    "name": "",
                    "type": "address"
                }
            ],
            "stateMutability": "nonpayable",
            "type": "function"
        },
        {
            "inputs": [],
            "name": "tiempo",
            "outputs": [
                {
                    "internalType": "uint256",
                    "name": "",
                    "type": "uint256"
                }
            ],
            "stateMutability": "view",
            "type": "function"
        },
        {
            "inputs": [
                {
                    "internalType": "address payable",
                    "name": "newOwner",
                    "type": "address"
                }
            ],
            "name": "transferOwnership",
            "outputs": [],
            "stateMutability": "nonpayable",
            "type": "function"
        },
        {
            "inputs": [
                {
                    "internalType": "uint256[]",
                    "name": "_fases",
                    "type": "uint256[]"
                }
            ],
            "name": "updateFases",
            "outputs": [
                {
                    "internalType": "bool",
                    "name": "",
                    "type": "bool"
                }
            ],
            "stateMutability": "nonpayable",
            "type": "function"
        },
        {
            "inputs": [
                {
                    "internalType": "uint256",
                    "name": "_precio",
                    "type": "uint256"
                },
                {
                    "internalType": "uint256",
                    "name": "_aumento",
                    "type": "uint256"
                }
            ],
            "name": "updatePrecios",
            "outputs": [
                {
                    "internalType": "bool",
                    "name": "",
                    "type": "bool"
                }
            ],
            "stateMutability": "nonpayable",
            "type": "function"
        },
        {
            "inputs": [],
            "name": "valor",
            "outputs": [
                {
                    "internalType": "uint256",
                    "name": "",
                    "type": "uint256"
                }
            ],
            "stateMutability": "view",
            "type": "function"
        },
        {
            "inputs": [
                {
                    "internalType": "address",
                    "name": "_fan",
                    "type": "address"
                },
                {
                    "internalType": "uint256",
                    "name": "_i",
                    "type": "uint256"
                }
            ],
            "name": "verFanItems",
            "outputs": [
                {
                    "internalType": "bool",
                    "name": "",
                    "type": "bool"
                }
            ],
            "stateMutability": "view",
            "type": "function"
        },
        {
            "inputs": [],
            "name": "verGanador",
            "outputs": [
                {
                    "internalType": "uint256",
                    "name": "",
                    "type": "uint256"
                }
            ],
            "stateMutability": "view",
            "type": "function"
        },
        {
            "inputs": [
                {
                    "internalType": "uint256",
                    "name": "_item",
                    "type": "uint256"
                }
            ],
            "name": "votar",
            "outputs": [
                {
                    "internalType": "bool",
                    "name": "",
                    "type": "bool"
                }
            ],
            "stateMutability": "nonpayable",
            "type": "function"
        },
        {
            "inputs": [
                {
                    "internalType": "uint256",
                    "name": "",
                    "type": "uint256"
                }
            ],
            "name": "votos",
            "outputs": [
                {
                    "internalType": "uint256",
                    "name": "",
                    "type": "uint256"
                }
            ],
            "stateMutability": "view",
            "type": "function"
        },
        {
            "stateMutability": "payable",
            "type": "receive"
        }
    ],
    "bytecode": "600280546001600160a01b031916732f7a0ee68709788e1aa8065a300e964993eb7b0817815560c06040526361816e90608090815263635e884160a0526200004b9160039190620002a4565b506802b5e3af16b1880000600455676124fee993bc0000600555600254600680546001600160a01b0319166001600160a01b039092169190911790553480156200009457600080fd5b506200009f620002a0565b600080546001600160a01b0319166001600160a01b03929092169190911781556001908190620000ce620002a0565b6001600160a01b0316815260208101919091526040016000908120805460ff1916921515929092179091555b602081101562000192576008805460018082019092557ff3f7a9fe364faab93b216da50a3214154f22a0a2b415b23a84c8169e8b636ee360208204018054601f9092166101000a60ff0219909116905560098054918201815560009081527f6e1540171b6c0c960b71a7020d9f60077f6af931a8bbf590da0223dacf75c7af909101558062000189816200041e565b915050620000fa565b5060088054620001a591600a91620002fc565b50620001b06200034d565b6040518060400160405280600115158152602001600a8054806020026020016040519081016040528092919081815260200182805480156200023257602002820191906000526020600020906000905b825461010083900a900460ff161515815260206001928301818104948501949093039092029101808411620002005790505b50505050508152509050806007600062000251620002a060201b60201c565b6001600160a01b031681526020808201929092526040016000208251815460ff19169015151781558282015180519192620002959260018501929091019062000365565b509050505062000446565b3390565b828054828255906000526020600020908101928215620002ea579160200282015b82811115620002ea578251829063ffffffff16905591602001919060010190620002c5565b50620002f892915062000407565b5090565b82805482825590600052602060002090601f01602090048101928215620002ea57600052602060002091601f016020900482015b82811115620002ea57825482559160010191906001019062000330565b60408051808201909152600081526060602082015290565b82805482825590600052602060002090601f01602090048101928215620002ea5791602002820160005b83821115620003ce57835183826101000a81548160ff02191690831515021790555092602001926001016020816000010492830192600103026200038f565b8015620003fd5782816101000a81549060ff0219169055600101602081600001049283019260010302620003ce565b5050620002f89291505b5b80821115620002f8576000815560010162000408565b60006000198214156200043f57634e487b7160e01b81526011600452602481fd5b5060010190565b611a8280620004566000396000f3fe6080604052600436106101845760003560e01c806370a0966b116100d1578063bfb231d21161008a578063ecbac7cf11610064578063ecbac7cf14610425578063eecd9c851461043a578063f2fde38b1461044f578063fd14d5981461046f5761018b565b8063bfb231d2146103d0578063cff6f53e146103f0578063e9a72315146104055761018b565b806370a0966b146103315780637fa5a0bf146103515780638da5cb5b146103715780638f9607cb146103865780639114bde81461039b578063b2731f0e146103b05761018b565b806335e756c91161013e57806350188c081161011857806350188c08146102bc5780635d553a9f146102d157806363a846f8146102f157806369ed1e0a146103115761018b565b806335e756c91461025c578063366cb3f21461027c5780634b0749cc1461029c5761018b565b8062a369471461018d578063074afa6d146101b8578063144fa6d7146101e557806316f0115b146102125780632160683114610227578063238393e4146102475761018b565b3661018b57005b005b34801561019957600080fd5b506101a2610484565b6040516101af9190611976565b60405180910390f35b3480156101c457600080fd5b506101d86101d336600461161e565b6104c6565b6040516101af91906117fb565b3480156101f157600080fd5b5061020561020036600461161e565b6104db565b6040516101af9190611790565b34801561021e57600080fd5b506101a2610536565b34801561023357600080fd5b506101d861024236600461173f565b61053c565b34801561025357600080fd5b506101a26108e8565b34801561026857600080fd5b506101a261027736600461173f565b6108ee565b34801561028857600080fd5b506101d8610297366004611665565b61096a565b3480156102a857600080fd5b506101d86102b736600461163a565b6109ae565b3480156102c857600080fd5b506101a2610a8a565b3480156102dd57600080fd5b506101a26102ec36600461173f565b610a8e565b3480156102fd57600080fd5b506101d861030c36600461161e565b610be3565b34801561031d57600080fd5b5061018b61032c36600461161e565b610bf8565b34801561033d57600080fd5b5061018b61034c36600461161e565b610c8d565b34801561035d57600080fd5b506101d861036c36600461176f565b610d1c565b34801561037d57600080fd5b50610205610d53565b34801561039257600080fd5b506101a2610d62565b3480156103a757600080fd5b506101a2610dd6565b3480156103bc57600080fd5b506101a26103cb36600461173f565b610f73565b3480156103dc57600080fd5b506101d86103eb36600461173f565b610f94565b3480156103fc57600080fd5b506101d8610fc8565b34801561041157600080fd5b506101a261042036600461161e565b611008565b34801561043157600080fd5b506101a26110b9565b34801561044657600080fd5b506101a261111d565b34801561045b57600080fd5b5061018b61046a36600461161e565b6113f7565b34801561047b57600080fd5b506101a261148c565b6003805460009190610498906001906119d6565b815481106104b657634e487b7160e01b600052603260045260246000fd5b9060005260206000200154905090565b60076020526000908152604090205460ff1681565b600080546001600160a01b03166104f06114f5565b6001600160a01b03161461050357600080fd5b50600680546001600160a01b0383166001600160a01b03199182168117909255600280549091169091179055805b919050565b600b5481565b6000806007600061054b6114f5565b6001600160a01b031681526020810191909152604001600020600a5460018201549192501461059457805460ff191660019081178255600a80546105929284019190611570565b505b600061059e6110b9565b1180156105b057506105ae610dd6565b155b156108de578060010183815481106105d857634e487b7160e01b600052603260045260246000fd5b90600052602060002090602091828204019190069054906101000a900460ff1615156001151514156106255760405162461bcd60e51b815260040161061c9061191f565b60405180910390fd5b61062d6110b9565b6006546001600160a01b031663dd62ed3e6106466114f5565b306040518363ffffffff1660e01b81526004016106649291906117a4565b60206040518083038186803b15801561067c57600080fd5b505afa158015610690573d6000803e3d6000fd5b505050506040513d601f19601f820116820180604052508101906106b49190611757565b10156106d25760405162461bcd60e51b815260040161061c906118a3565b6106da6110b9565b6006546001600160a01b03166370a082316106f36114f5565b6040518263ffffffff1660e01b815260040161070f9190611790565b60206040518083038186803b15801561072757600080fd5b505afa15801561073b573d6000803e3d6000fd5b505050506040513d601f19601f8201168201806040525081019061075f9190611757565b101561077d5760405162461bcd60e51b815260040161061c9061194a565b6006546001600160a01b03166323b872dd6107966114f5565b3061079f6110b9565b6040518463ffffffff1660e01b81526004016107bd939291906117be565b602060405180830381600087803b1580156107d757600080fd5b505af11580156107eb573d6000803e3d6000fd5b505050506040513d601f19601f8201168201806040525081019061080f919061171f565b61082b5760405162461bcd60e51b815260040161061c90611806565b6009838154811061084c57634e487b7160e01b600052603260045260246000fd5b60009182526020822001805491610862836119ed565b9190505550600181600101848154811061088c57634e487b7160e01b600052603260045260246000fd5b90600052602060002090602091828204019190066101000a81548160ff0219169083151502179055506108bd6110b9565b600b60008282546108ce919061197f565b9091555060019250610531915050565b6000915050610531565b60085490565b600080546001600160a01b03166109036114f5565b6001600160a01b03161461091657600080fd5b60016008838154811061093957634e487b7160e01b600052603260045260246000fd5b90600052602060002090602091828204019190066101000a81548160ff021916908315150217905550819050919050565b600080546001600160a01b031661097f6114f5565b6001600160a01b03161461099257600080fd5b81516109a59060039060208501906115ce565b50600192915050565b6001600160a01b038216600090815260076020908152604080832081518083018352815460ff1615158152600182018054845181870281018701909552808552869592948584019390929190830182828015610a4957602002820191906000526020600020906000905b825461010083900a900460ff161515815260206001928301818104948501949093039092029101808411610a185790505b505050505081525050905080602001518381518110610a7857634e487b7160e01b600052603260045260246000fd5b60200260200101519150505b92915050565b4290565b600080546001600160a01b0316610aa36114f5565b6001600160a01b031614610ab657600080fd5b6006546040516370a0823160e01b815283916001600160a01b0316906370a0823190610ae6903090600401611790565b60206040518083038186803b158015610afe57600080fd5b505afa158015610b12573d6000803e3d6000fd5b505050506040513d601f19601f82011682018060405250810190610b369190611757565b1015610b545760405162461bcd60e51b815260040161061c9061194a565b60065460005460405163a9059cbb60e01b81526001600160a01b039283169263a9059cbb92610b8a9291169086906004016117e2565b602060405180830381600087803b158015610ba457600080fd5b505af1158015610bb8573d6000803e3d6000fd5b505050506040513d601f19601f82011682018060405250810190610bdc919061171f565b5090919050565b60016020526000908152604090205460ff1681565b6000546001600160a01b0316610c0c6114f5565b6001600160a01b031614610c1f57600080fd5b6001600160a01b038116610c3257600080fd5b6040516001600160a01b038216907f71614071b88dee5e0b2ae578a9dd7b2ebbe9ae832ba419dc0242cd065a290b6c90600090a26001600160a01b03166000908152600160208190526040909120805460ff19169091179055565b6000546001600160a01b0316610ca16114f5565b6001600160a01b031614610cb457600080fd5b6001600160a01b038116610cc757600080fd5b6040516001600160a01b038216907fa3b62bc36326052d97ea62d63c3d60308ed4c3ea8ac079dd8499f1e9c4f80c0f90600090a26001600160a01b03166000908152600160205260409020805460ff19169055565b600080546001600160a01b0316610d316114f5565b6001600160a01b031614610d4457600080fd5b50600491909155600555600190565b6000546001600160a01b031681565b600854600090815b600854811015610dd05760088181548110610d9557634e487b7160e01b600052603260045260246000fd5b90600052602060002090602091828204019190069054906101000a900460ff1615610dbe578091505b80610dc8816119ed565b915050610d6a565b50905090565b60008060076000610de56114f5565b6001600160a01b03168152602080820192909252604090810160002081518083018352815460ff16151581526001820180548451818702810187019095528085529194929385840193909290830182828015610e8057602002820191906000526020600020906000905b825461010083900a900460ff161515815260206001928301818104948501949093039092029101808411610e4f5790505b5050505050815250509050600080600090505b600854811015610f6c5760088181548110610ebe57634e487b7160e01b600052603260045260246000fd5b90600052602060002090602091828204019190069054906101000a900460ff168015610f12575082602001518181518110610f0957634e487b7160e01b600052603260045260246000fd5b60200260200101515b15610f5a57610f5760098281548110610f3b57634e487b7160e01b600052603260045260246000fd5b9060005260206000200154600b546114f990919063ffffffff16565b91505b80610f64816119ed565b915050610e93565b5091505090565b60098181548110610f8357600080fd5b600091825260209091200154905081565b60088181548110610fa457600080fd5b9060005260206000209060209182820401919006915054906101000a900460ff1681565b600080546001600160a01b0316610fdd6114f5565b6001600160a01b031614610ff057600080fd5b600a805461100091600891611570565b506001905090565b6001600160a01b038116600090815260076020908152604080832081518083018352815460ff16151581526001820180548451818702810187019095528085528695929485840193909291908301828280156110a357602002820191906000526020600020906000905b825461010083900a900460ff1615158152602060019283018181049485019490930390920291018084116110725790505b5050509190925250505060200151519392505050565b60006111186005546111126201518061110c60036000815481106110ed57634e487b7160e01b600052603260045260246000fd5b90600052602060002001544261110391906119d6565b6004549061151b565b906114f9565b9061153e565b905090565b60006003808154811061114057634e487b7160e01b600052603260045260246000fd5b906000526020600020015442101561116a5760405162461bcd60e51b815260040161061c906118da565b611172610dd6565b6006546040516370a0823160e01b81526001600160a01b03909116906370a08231906111a2903090600401611790565b60206040518083038186803b1580156111ba57600080fd5b505afa1580156111ce573d6000803e3d6000fd5b505050506040513d601f19601f820116820180604052508101906111f29190611757565b10156112105760405162461bcd60e51b815260040161061c90611862565b6006546001600160a01b031663a9059cbb6112296114f5565b611231610dd6565b6040518363ffffffff1660e01b815260040161124e9291906117e2565b602060405180830381600087803b15801561126857600080fd5b505af115801561127c573d6000803e3d6000fd5b505050506040513d601f19601f820116820180604052508101906112a0919061171f565b6112bc5760405162461bcd60e51b815260040161061c90611835565b6000600760006112ca6114f5565b6001600160a01b03168152602080820192909252604090810160002081518083018352815460ff1615158152600182018054845181870281018701909552808552919492938584019390929083018282801561136557602002820191906000526020600020906000905b825461010083900a900460ff1615158152602060019283018181049485019490930390920291018084116113345790505b5050505050815250509050600a8054806020026020016040519081016040528092919081815260200182805480156113dc57602002820191906000526020600020906000905b825461010083900a900460ff1615158152602060019283018181049485019490930390920291018084116113ab5790505b505050505081602001819052506113f1610dd6565b91505090565b6000546001600160a01b031661140b6114f5565b6001600160a01b03161461141e57600080fd5b6001600160a01b03811661143157600080fd5b600080546040516001600160a01b03808516939216917f8be0079c531659141344cd1fd0a4f28419497f9722a3daafe3b4186f6b6457e091a3600080546001600160a01b0319166001600160a01b0392909216919091179055565b600080546001600160a01b03166114a16114f5565b6001600160a01b0316146114b457600080fd5b600080546040516001600160a01b03909116914780156108fc02929091818181858888f193505050501580156114ee573d6000803e3d6000fd5b5047905090565b3390565b600080821161150757600080fd5b60006115138385611997565b949350505050565b600080611528838561197f565b90508381101561153757600080fd5b9392505050565b60008261154d57506000610a84565b600061155983856119b7565b9050826115668583611997565b1461153757600080fd5b82805482825590600052602060002090601f016020900481019282156115be57600052602060002091601f016020900482015b828111156115be5782548255916001019190600101906115a3565b506115ca929150611609565b5090565b8280548282559060005260206000209081019282156115be579160200282015b828111156115be5782518255916020019190600101906115ee565b5b808211156115ca576000815560010161160a565b60006020828403121561162f578081fd5b813561153781611a34565b6000806040838503121561164c578081fd5b823561165781611a34565b946020939093013593505050565b60006020808385031215611677578182fd5b823567ffffffffffffffff8082111561168e578384fd5b818501915085601f8301126116a1578384fd5b8135818111156116b3576116b3611a1e565b838102604051858282010181811085821117156116d2576116d2611a1e565b604052828152858101935084860182860187018a10156116f0578788fd5b8795505b838610156117125780358552600195909501949386019386016116f4565b5098975050505050505050565b600060208284031215611730578081fd5b81518015158114611537578182fd5b600060208284031215611750578081fd5b5035919050565b600060208284031215611768578081fd5b5051919050565b60008060408385031215611781578182fd5b50508035926020909101359150565b6001600160a01b0391909116815260200190565b6001600160a01b0392831681529116602082015260400190565b6001600160a01b039384168152919092166020820152604081019190915260600190565b6001600160a01b03929092168252602082015260400190565b901515815260200190565b6020808252601590820152747472616e73666572656e6369612066616c6c69646160581b604082015260600190565b6020808252601390820152727472616e73616363696f6e2066616c6c69646160681b604082015260600190565b60208082526021908201527f73616c646f20696e737566696369656e746520656e20656c20636f6e747261746040820152606f60f81b606082015260800190565b60208082526017908201527f6170726f766163696f6e20696e737566696369656e7465000000000000000000604082015260600190565b60208082526025908201527f6e6f2068612066696e616c697a61646f20656c207469656d706f2064656c20746040820152646f726e656f60d81b606082015260800190565b6020808252601190820152706974656d2079612061647175697269646f60781b604082015260600190565b60208082526012908201527173616c646f20696e737566696369656e746560701b604082015260600190565b90815260200190565b6000821982111561199257611992611a08565b500190565b6000826119b257634e487b7160e01b81526012600452602481fd5b500490565b60008160001904831182151516156119d1576119d1611a08565b500290565b6000828210156119e8576119e8611a08565b500390565b6000600019821415611a0157611a01611a08565b5060010190565b634e487b7160e01b600052601160045260246000fd5b634e487b7160e01b600052604160045260246000fd5b6001600160a01b0381168114611a4957600080fd5b5056fea264697066735822122010b59905014b859c477bb46534a0e0b437cf53f54b13b325adaed91073198be764736f6c63430008000033",
    "sourcePath": "c:/Users/STC/Documents/GitHub/goal-crypto/contracts/Votacion/fan.sol",
    "compiler": {
        "name": "solc",
        "version": "0.8.0+commit.c7dfd78e"
    },
    "functionHashes": {
        "ReIniciar()": "cff6f53e",
        "admin(address)": "63a846f8",
        "fans(address)": "074afa6d",
        "fin()": "00a36947",
        "ganador()": "9114bde8",
        "items(uint256)": "bfb231d2",
        "largoFanItems(address)": "e9a72315",
        "largoItems()": "238393e4",
        "makeNewAdmin(address)": "69ed1e0a",
        "makeRemoveAdmin(address)": "70a0966b",
        "owner()": "8da5cb5b",
        "pool()": "16f0115b",
        "reclamar()": "eecd9c85",
        "redimBNB()": "fd14d598",
        "redimToken(uint256)": "5d553a9f",
        "setGanador(uint256)": "35e756c9",
        "setToken(address)": "144fa6d7",
        "tiempo()": "50188c08",
        "transferOwnership(address)": "f2fde38b",
        "updateFases(uint256[])": "366cb3f2",
        "updatePrecios(uint256,uint256)": "7fa5a0bf",
        "valor()": "ecbac7cf",
        "verFanItems(address,uint256)": "4b0749cc",
        "verGanador()": "8f9607cb",
        "votar(uint256)": "21606831",
        "votos(uint256)": "b2731f0e"
    },
    "gasEstimates": {
        "creation": {
            "codeDepositCost": "1357200",
            "executionCost": "infinite",
            "totalCost": "infinite"
        },
        "external": {
            "": "241",
            "ReIniciar()": "infinite",
            "admin(address)": "1347",
            "fans(address)": "1304",
            "fin()": "2816",
            "ganador()": "infinite",
            "items(uint256)": "3702",
            "largoFanItems(address)": "infinite",
            "largoItems()": "1162",
            "makeNewAdmin(address)": "23414",
            "makeRemoveAdmin(address)": "23308",
            "owner()": "1137",
            "pool()": "1118",
            "reclamar()": "infinite",
            "redimBNB()": "infinite",
            "redimToken(uint256)": "infinite",
            "setGanador(uint256)": "24624",
            "setToken(address)": "43061",
            "tiempo()": "272",
            "transferOwnership(address)": "24527",
            "updateFases(uint256[])": "infinite",
            "updatePrecios(uint256,uint256)": "41284",
            "valor()": "infinite",
            "verFanItems(address,uint256)": "infinite",
            "verGanador()": "infinite",
            "votar(uint256)": "infinite",
            "votos(uint256)": "2129"
        }
    }
}