{
    "contractName": "Voter",
    "abi": [
        {
            "inputs": [],
            "stateMutability": "nonpayable",
            "type": "constructor"
        },
        {
            "anonymous": false,
            "inputs": [
                {
                    "indexed": true,
                    "internalType": "address",
                    "name": "admin",
                    "type": "address"
                }
            ],
            "name": "AdminRemoved",
            "type": "event"
        },
        {
            "anonymous": false,
            "inputs": [
                {
                    "indexed": true,
                    "internalType": "address",
                    "name": "admin",
                    "type": "address"
                }
            ],
            "name": "NewAdmin",
            "type": "event"
        },
        {
            "anonymous": false,
            "inputs": [
                {
                    "indexed": true,
                    "internalType": "address",
                    "name": "previousOwner",
                    "type": "address"
                },
                {
                    "indexed": true,
                    "internalType": "address",
                    "name": "newOwner",
                    "type": "address"
                }
            ],
            "name": "OwnershipTransferred",
            "type": "event"
        },
        {
            "stateMutability": "payable",
            "type": "fallback"
        },
        {
            "inputs": [],
            "name": "ReIniciar",
            "outputs": [
                {
                    "internalType": "bool",
                    "name": "",
                    "type": "bool"
                }
            ],
            "stateMutability": "nonpayable",
            "type": "function"
        },
        {
            "inputs": [
                {
                    "internalType": "address",
                    "name": "",
                    "type": "address"
                }
            ],
            "name": "admin",
            "outputs": [
                {
                    "internalType": "bool",
                    "name": "",
                    "type": "bool"
                }
            ],
            "stateMutability": "view",
            "type": "function"
        },
        {
            "inputs": [
                {
                    "internalType": "address",
                    "name": "",
                    "type": "address"
                }
            ],
            "name": "fans",
            "outputs": [
                {
                    "internalType": "bool",
                    "name": "registrado",
                    "type": "bool"
                }
            ],
            "stateMutability": "view",
            "type": "function"
        },
        {
            "inputs": [],
            "name": "fin",
            "outputs": [
                {
                    "internalType": "uint256",
                    "name": "",
                    "type": "uint256"
                }
            ],
            "stateMutability": "view",
            "type": "function"
        },
        {
            "inputs": [],
            "name": "ganador",
            "outputs": [
                {
                    "internalType": "uint256",
                    "name": "",
                    "type": "uint256"
                }
            ],
            "stateMutability": "view",
            "type": "function"
        },
        {
            "inputs": [
                {
                    "internalType": "uint256",
                    "name": "",
                    "type": "uint256"
                }
            ],
            "name": "items",
            "outputs": [
                {
                    "internalType": "bool",
                    "name": "",
                    "type": "bool"
                }
            ],
            "stateMutability": "view",
            "type": "function"
        },
        {
            "inputs": [
                {
                    "internalType": "address",
                    "name": "_fan",
                    "type": "address"
                }
            ],
            "name": "largoFanItems",
            "outputs": [
                {
                    "internalType": "uint256",
                    "name": "",
                    "type": "uint256"
                }
            ],
            "stateMutability": "view",
            "type": "function"
        },
        {
            "inputs": [],
            "name": "largoItems",
            "outputs": [
                {
                    "internalType": "uint256",
                    "name": "",
                    "type": "uint256"
                }
            ],
            "stateMutability": "view",
            "type": "function"
        },
        {
            "inputs": [
                {
                    "internalType": "address payable",
                    "name": "_newadmin",
                    "type": "address"
                }
            ],
            "name": "makeNewAdmin",
            "outputs": [],
            "stateMutability": "nonpayable",
            "type": "function"
        },
        {
            "inputs": [
                {
                    "internalType": "address payable",
                    "name": "_oldadmin",
                    "type": "address"
                }
            ],
            "name": "makeRemoveAdmin",
            "outputs": [],
            "stateMutability": "nonpayable",
            "type": "function"
        },
        {
            "inputs": [],
            "name": "owner",
            "outputs": [
                {
                    "internalType": "address payable",
                    "name": "",
                    "type": "address"
                }
            ],
            "stateMutability": "view",
            "type": "function"
        },
        {
            "inputs": [],
            "name": "pool",
            "outputs": [
                {
                    "internalType": "uint256",
                    "name": "",
                    "type": "uint256"
                }
            ],
            "stateMutability": "view",
            "type": "function"
        },
        {
            "inputs": [],
            "name": "reclamar",
            "outputs": [
                {
                    "internalType": "uint256",
                    "name": "",
                    "type": "uint256"
                }
            ],
            "stateMutability": "nonpayable",
            "type": "function"
        },
        {
            "inputs": [],
            "name": "redimBNB",
            "outputs": [
                {
                    "internalType": "uint256",
                    "name": "",
                    "type": "uint256"
                }
            ],
            "stateMutability": "nonpayable",
            "type": "function"
        },
        {
            "inputs": [
                {
                    "internalType": "uint256",
                    "name": "_value",
                    "type": "uint256"
                }
            ],
            "name": "redimToken",
            "outputs": [
                {
                    "internalType": "uint256",
                    "name": "",
                    "type": "uint256"
                }
            ],
            "stateMutability": "nonpayable",
            "type": "function"
        },
        {
            "inputs": [
                {
                    "internalType": "uint256",
                    "name": "_item",
                    "type": "uint256"
                }
            ],
            "name": "setGanador",
            "outputs": [
                {
                    "internalType": "uint256",
                    "name": "",
                    "type": "uint256"
                }
            ],
            "stateMutability": "nonpayable",
            "type": "function"
        },
        {
            "inputs": [
                {
                    "internalType": "address",
                    "name": "_tokebp20",
                    "type": "address"
                }
            ],
            "name": "setToken",
            "outputs": [
                {
                    "internalType": "address",
                    "name": "",
                    "type": "address"
                }
            ],
            "stateMutability": "nonpayable",
            "type": "function"
        },
        {
            "inputs": [],
            "name": "tiempo",
            "outputs": [
                {
                    "internalType": "uint256",
                    "name": "",
                    "type": "uint256"
                }
            ],
            "stateMutability": "view",
            "type": "function"
        },
        {
            "inputs": [
                {
                    "internalType": "address payable",
                    "name": "newOwner",
                    "type": "address"
                }
            ],
            "name": "transferOwnership",
            "outputs": [],
            "stateMutability": "nonpayable",
            "type": "function"
        },
        {
            "inputs": [
                {
                    "internalType": "uint256[]",
                    "name": "_fases",
                    "type": "uint256[]"
                }
            ],
            "name": "updateFases",
            "outputs": [
                {
                    "internalType": "bool",
                    "name": "",
                    "type": "bool"
                }
            ],
            "stateMutability": "nonpayable",
            "type": "function"
        },
        {
            "inputs": [
                {
                    "internalType": "uint256[]",
                    "name": "_precios",
                    "type": "uint256[]"
                }
            ],
            "name": "updatePrecios",
            "outputs": [
                {
                    "internalType": "bool",
                    "name": "",
                    "type": "bool"
                }
            ],
            "stateMutability": "nonpayable",
            "type": "function"
        },
        {
            "inputs": [],
            "name": "valor",
            "outputs": [
                {
                    "internalType": "uint256",
                    "name": "",
                    "type": "uint256"
                }
            ],
            "stateMutability": "view",
            "type": "function"
        },
        {
            "inputs": [
                {
                    "internalType": "address",
                    "name": "_fan",
                    "type": "address"
                },
                {
                    "internalType": "uint256",
                    "name": "_i",
                    "type": "uint256"
                }
            ],
            "name": "verFanItems",
            "outputs": [
                {
                    "internalType": "bool",
                    "name": "",
                    "type": "bool"
                }
            ],
            "stateMutability": "view",
            "type": "function"
        },
        {
            "inputs": [],
            "name": "verGanador",
            "outputs": [
                {
                    "internalType": "uint256",
                    "name": "",
                    "type": "uint256"
                }
            ],
            "stateMutability": "view",
            "type": "function"
        },
        {
            "inputs": [
                {
                    "internalType": "uint256",
                    "name": "_item",
                    "type": "uint256"
                }
            ],
            "name": "votar",
            "outputs": [
                {
                    "internalType": "bool",
                    "name": "",
                    "type": "bool"
                }
            ],
            "stateMutability": "nonpayable",
            "type": "function"
        },
        {
            "inputs": [
                {
                    "internalType": "uint256",
                    "name": "",
                    "type": "uint256"
                }
            ],
            "name": "votos",
            "outputs": [
                {
                    "internalType": "uint256",
                    "name": "",
                    "type": "uint256"
                }
            ],
            "stateMutability": "view",
            "type": "function"
        },
        {
            "stateMutability": "payable",
            "type": "receive"
        }
    ],
    "bytecode": "600280546001600160a01b0319167355d398326f99059ff775485246999027b31979551790556101006040526361816e906080908152636186d0b060a05263635e85b860c05263635e884160e0526200005d906003906004620002be565b50604080516060810182526802b5e3af16b18800008152680410d586a20a4c0000602082015268056bc75e2d6310000091810191909152620000a490600490600362000316565b50600254600580546001600160a01b0319166001600160a01b039092169190911781556040805160a0810182526000808252602082018190529181018290526060810182905260808101919091526200010191600791906200035f565b506040805160a0810182526000808252602082018190529181018290526060810182905260808101919091526200013d90600890600562000406565b5060078054620001509160099162000449565b503480156200015e57600080fd5b5062000169620002ba565b600080546001600160a01b0319166001600160a01b0392909216919091178155600190819062000198620002ba565b6001600160a01b031681526020810191909152604001600020805460ff1916911515919091179055620001ca6200049a565b604051806040016040528060011515815260200160098054806020026020016040519081016040528092919081815260200182805480156200024c57602002820191906000526020600020906000905b825461010083900a900460ff1615158152602060019283018181049485019490930390920291018084116200021a5790505b5050505050815250905080600660006200026b620002ba60201b60201c565b6001600160a01b031681526020808201929092526040016000208251815460ff19169015151781558282015180519192620002af926001850192909101906200035f565b5090505050620004c9565b3390565b82805482825590600052602060002090810192821562000304579160200282015b8281111562000304578251829063ffffffff16905591602001919060010190620002df565b5062000312929150620004b2565b5090565b82805482825590600052602060002090810192821562000304579160200282015b828111156200030457825182906001600160481b031690559160200191906001019062000337565b82805482825590600052602060002090601f01602090048101928215620003045791602002820160005b83821115620003c857835183826101000a81548160ff021916908315150217905550926020019260010160208160000104928301926001030262000389565b8015620003f75782816101000a81549060ff0219169055600101602081600001049283019260010302620003c8565b505062000312929150620004b2565b82805482825590600052602060002090810192821562000304579160200282015b8281111562000304578251829060ff1690559160200191906001019062000427565b82805482825590600052602060002090601f016020900481019282156200030457600052602060002091601f016020900482015b82811115620003045782548255916001019190600101906200047d565b60408051808201909152600081526060602082015290565b5b80821115620003125760008155600101620004b3565b611b5780620004d96000396000f3fe6080604052600436106101845760003560e01c806370a0966b116100d1578063bfb231d21161008a578063ecbac7cf11610064578063ecbac7cf14610425578063eecd9c851461043a578063f2fde38b1461044f578063fd14d5981461046f5761018b565b8063bfb231d2146103d0578063cff6f53e146103f0578063e9a72315146104055761018b565b806370a0966b146103315780638da5cb5b146103515780638f9607cb146103665780639114bde81461037b5780639d4c2be914610390578063b2731f0e146103b05761018b565b806335e756c91161013e57806350188c081161011857806350188c08146102bc5780635d553a9f146102d157806363a846f8146102f157806369ed1e0a146103115761018b565b806335e756c91461025c578063366cb3f21461027c5780634b0749cc1461029c5761018b565b8062a369471461018d578063074afa6d146101b8578063144fa6d7146101e557806316f0115b146102125780632160683114610227578063238393e4146102475761018b565b3661018b57005b005b34801561019957600080fd5b506101a2610484565b6040516101af9190611a6a565b60405180910390f35b3480156101c457600080fd5b506101d86101d336600461172c565b6104c7565b6040516101af91906118ef565b3480156101f157600080fd5b5061020561020036600461172c565b6104dc565b6040516101af9190611884565b34801561021e57600080fd5b506101a2610537565b34801561023357600080fd5b506101d8610242366004611854565b61053d565b34801561025357600080fd5b506101a26108e9565b34801561026857600080fd5b506101a2610277366004611854565b6108ef565b34801561028857600080fd5b506101d861029736600461177a565b61096b565b3480156102a857600080fd5b506101d86102b736600461174f565b6109af565b3480156102c857600080fd5b506101a2610a8a565b3480156102dd57600080fd5b506101a26102ec366004611854565b610a8e565b3480156102fd57600080fd5b506101d861030c36600461172c565b610be3565b34801561031d57600080fd5b5061018b61032c36600461172c565b610bf8565b34801561033d57600080fd5b5061018b61034c36600461172c565b610c8d565b34801561035d57600080fd5b50610205610d1c565b34801561037257600080fd5b506101a2610d2b565b34801561038757600080fd5b506101a2610d9f565b34801561039c57600080fd5b506101d86103ab36600461177a565b610f3c565b3480156103bc57600080fd5b506101a26103cb366004611854565b610f77565b3480156103dc57600080fd5b506101d86103eb366004611854565b610f98565b3480156103fc57600080fd5b506101d8610fcc565b34801561041157600080fd5b506101a261042036600461172c565b61100c565b34801561043157600080fd5b506101a26110bd565b34801561044657600080fd5b506101a2611280565b34801561045b57600080fd5b5061018b61046a36600461172c565b61155a565b34801561047b57600080fd5b506101a26115ef565b600380546000919061049890600190611aab565b815481106104b657634e487b7160e01b600052603260045260246000fd5b906000526020600020015490505b90565b60066020526000908152604090205460ff1681565b600080546001600160a01b03166104f1611658565b6001600160a01b03161461050457600080fd5b50600580546001600160a01b0383166001600160a01b03199182168117909255600280549091169091179055805b919050565b600a5481565b6000806006600061054c611658565b6001600160a01b03168152602081019190915260400160002060095460018201549192501461059557805460ff19166001908117825560098054610593928401919061167e565b505b600061059f6110bd565b1180156105b157506105af610d9f565b155b156108df578060010183815481106105d957634e487b7160e01b600052603260045260246000fd5b90600052602060002090602091828204019190069054906101000a900460ff1615156001151514156106265760405162461bcd60e51b815260040161061d90611a13565b60405180910390fd5b61062e6110bd565b6005546001600160a01b031663dd62ed3e610647611658565b306040518363ffffffff1660e01b8152600401610665929190611898565b60206040518083038186803b15801561067d57600080fd5b505afa158015610691573d6000803e3d6000fd5b505050506040513d601f19601f820116820180604052508101906106b5919061186c565b10156106d35760405162461bcd60e51b815260040161061d90611997565b6106db6110bd565b6005546001600160a01b03166370a082316106f4611658565b6040518263ffffffff1660e01b81526004016107109190611884565b60206040518083038186803b15801561072857600080fd5b505afa15801561073c573d6000803e3d6000fd5b505050506040513d601f19601f82011682018060405250810190610760919061186c565b101561077e5760405162461bcd60e51b815260040161061d90611a3e565b6005546001600160a01b03166323b872dd610797611658565b306107a06110bd565b6040518463ffffffff1660e01b81526004016107be939291906118b2565b602060405180830381600087803b1580156107d857600080fd5b505af11580156107ec573d6000803e3d6000fd5b505050506040513d601f19601f820116820180604052508101906108109190611834565b61082c5760405162461bcd60e51b815260040161061d906118fa565b6008838154811061084d57634e487b7160e01b600052603260045260246000fd5b6000918252602082200180549161086383611ac2565b9190505550600181600101848154811061088d57634e487b7160e01b600052603260045260246000fd5b90600052602060002090602091828204019190066101000a81548160ff0219169083151502179055506108be6110bd565b600a60008282546108cf9190611a73565b9091555060019250610532915050565b6000915050610532565b60075490565b600080546001600160a01b0316610904611658565b6001600160a01b03161461091757600080fd5b60016007838154811061093a57634e487b7160e01b600052603260045260246000fd5b90600052602060002090602091828204019190066101000a81548160ff021916908315150217905550819050919050565b600080546001600160a01b0316610980611658565b6001600160a01b03161461099357600080fd5b81516109a69060039060208501906116dc565b50600192915050565b6001600160a01b038216600090815260066020908152604080832081518083018352815460ff1615158152600182018054845181870281018701909552808552869592948584019390929190830182828015610a4a57602002820191906000526020600020906000905b825461010083900a900460ff161515815260206001928301818104948501949093039092029101808411610a195790505b505050505081525050905080602001518381518110610a7957634e487b7160e01b600052603260045260246000fd5b602002602001015191505092915050565b4290565b600080546001600160a01b0316610aa3611658565b6001600160a01b031614610ab657600080fd5b6005546040516370a0823160e01b815283916001600160a01b0316906370a0823190610ae6903090600401611884565b60206040518083038186803b158015610afe57600080fd5b505afa158015610b12573d6000803e3d6000fd5b505050506040513d601f19601f82011682018060405250810190610b36919061186c565b1015610b545760405162461bcd60e51b815260040161061d90611a3e565b60055460005460405163a9059cbb60e01b81526001600160a01b039283169263a9059cbb92610b8a9291169086906004016118d6565b602060405180830381600087803b158015610ba457600080fd5b505af1158015610bb8573d6000803e3d6000fd5b505050506040513d601f19601f82011682018060405250810190610bdc9190611834565b5090919050565b60016020526000908152604090205460ff1681565b6000546001600160a01b0316610c0c611658565b6001600160a01b031614610c1f57600080fd5b6001600160a01b038116610c3257600080fd5b6040516001600160a01b038216907f71614071b88dee5e0b2ae578a9dd7b2ebbe9ae832ba419dc0242cd065a290b6c90600090a26001600160a01b03166000908152600160208190526040909120805460ff19169091179055565b6000546001600160a01b0316610ca1611658565b6001600160a01b031614610cb457600080fd5b6001600160a01b038116610cc757600080fd5b6040516001600160a01b038216907fa3b62bc36326052d97ea62d63c3d60308ed4c3ea8ac079dd8499f1e9c4f80c0f90600090a26001600160a01b03166000908152600160205260409020805460ff19169055565b6000546001600160a01b031681565b600754600090815b600754811015610d995760078181548110610d5e57634e487b7160e01b600052603260045260246000fd5b90600052602060002090602091828204019190069054906101000a900460ff1615610d87578091505b80610d9181611ac2565b915050610d33565b50905090565b60008060066000610dae611658565b6001600160a01b03168152602080820192909252604090810160002081518083018352815460ff16151581526001820180548451818702810187019095528085529194929385840193909290830182828015610e4957602002820191906000526020600020906000905b825461010083900a900460ff161515815260206001928301818104948501949093039092029101808411610e185790505b5050505050815250509050600080600090505b600754811015610f355760078181548110610e8757634e487b7160e01b600052603260045260246000fd5b90600052602060002090602091828204019190069054906101000a900460ff168015610edb575082602001518181518110610ed257634e487b7160e01b600052603260045260246000fd5b60200260200101515b15610f2357610f2060088281548110610f0457634e487b7160e01b600052603260045260246000fd5b9060005260206000200154600a5461165c90919063ffffffff16565b91505b80610f2d81611ac2565b915050610e5c565b5091505090565b600080546001600160a01b0316610f51611658565b6001600160a01b031614610f6457600080fd5b81516109a69060049060208501906116dc565b60088181548110610f8757600080fd5b600091825260209091200154905081565b60078181548110610fa857600080fd5b9060005260206000209060209182820401919006915054906101000a900460ff1681565b600080546001600160a01b0316610fe1611658565b6001600160a01b031614610ff457600080fd5b600980546110049160079161167e565b506001905090565b6001600160a01b038116600090815260066020908152604080832081518083018352815460ff16151581526001820180548451818702810187019095528085528695929485840193909291908301828280156110a757602002820191906000526020600020906000905b825461010083900a900460ff1615158152602060019283018181049485019490930390920291018084116110765790505b5050509190925250505060200151519392505050565b600060036000815481106110e157634e487b7160e01b600052603260045260246000fd5b906000526020600020015442101580156111265750600360018154811061111857634e487b7160e01b600052603260045260246000fd5b906000526020600020015442105b1561115f57600460008154811061114d57634e487b7160e01b600052603260045260246000fd5b906000526020600020015490506104c4565b600360018154811061118157634e487b7160e01b600052603260045260246000fd5b906000526020600020015442101580156111c6575060036002815481106111b857634e487b7160e01b600052603260045260246000fd5b906000526020600020015442105b156111ed57600460018154811061114d57634e487b7160e01b600052603260045260246000fd5b600360028154811061120f57634e487b7160e01b600052603260045260246000fd5b9060005260206000200154421015801561125357506003808154811061124557634e487b7160e01b600052603260045260246000fd5b906000526020600020015442105b1561127a57600460028154811061114d57634e487b7160e01b600052603260045260246000fd5b50600090565b6000600380815481106112a357634e487b7160e01b600052603260045260246000fd5b90600052602060002001544210156112cd5760405162461bcd60e51b815260040161061d906119ce565b6112d5610d9f565b6005546040516370a0823160e01b81526001600160a01b03909116906370a0823190611305903090600401611884565b60206040518083038186803b15801561131d57600080fd5b505afa158015611331573d6000803e3d6000fd5b505050506040513d601f19601f82011682018060405250810190611355919061186c565b10156113735760405162461bcd60e51b815260040161061d90611956565b6005546001600160a01b031663a9059cbb61138c611658565b611394610d9f565b6040518363ffffffff1660e01b81526004016113b19291906118d6565b602060405180830381600087803b1580156113cb57600080fd5b505af11580156113df573d6000803e3d6000fd5b505050506040513d601f19601f820116820180604052508101906114039190611834565b61141f5760405162461bcd60e51b815260040161061d90611929565b60006006600061142d611658565b6001600160a01b03168152602080820192909252604090810160002081518083018352815460ff161515815260018201805484518187028101870190955280855291949293858401939092908301828280156114c857602002820191906000526020600020906000905b825461010083900a900460ff1615158152602060019283018181049485019490930390920291018084116114975790505b5050505050815250509050600980548060200260200160405190810160405280929190818152602001828054801561153f57602002820191906000526020600020906000905b825461010083900a900460ff16151581526020600192830181810494850194909303909202910180841161150e5790505b50505050508160200181905250611554610d9f565b91505090565b6000546001600160a01b031661156e611658565b6001600160a01b03161461158157600080fd5b6001600160a01b03811661159457600080fd5b600080546040516001600160a01b03808516939216917f8be0079c531659141344cd1fd0a4f28419497f9722a3daafe3b4186f6b6457e091a3600080546001600160a01b0319166001600160a01b0392909216919091179055565b600080546001600160a01b0316611604611658565b6001600160a01b03161461161757600080fd5b600080546040516001600160a01b03909116914780156108fc02929091818181858888f19350505050158015611651573d6000803e3d6000fd5b5047905090565b3390565b600080821161166a57600080fd5b60006116768385611a8b565b949350505050565b82805482825590600052602060002090601f016020900481019282156116cc57600052602060002091601f016020900482015b828111156116cc5782548255916001019190600101906116b1565b506116d8929150611717565b5090565b8280548282559060005260206000209081019282156116cc579160200282015b828111156116cc5782518255916020019190600101906116fc565b5b808211156116d85760008155600101611718565b60006020828403121561173d578081fd5b813561174881611b09565b9392505050565b60008060408385031215611761578081fd5b823561176c81611b09565b946020939093013593505050565b6000602080838503121561178c578182fd5b823567ffffffffffffffff808211156117a3578384fd5b818501915085601f8301126117b6578384fd5b8135818111156117c8576117c8611af3565b838102604051858282010181811085821117156117e7576117e7611af3565b604052828152858101935084860182860187018a1015611805578788fd5b8795505b83861015611827578035855260019590950194938601938601611809565b5098975050505050505050565b600060208284031215611845578081fd5b81518015158114611748578182fd5b600060208284031215611865578081fd5b5035919050565b60006020828403121561187d578081fd5b5051919050565b6001600160a01b0391909116815260200190565b6001600160a01b0392831681529116602082015260400190565b6001600160a01b039384168152919092166020820152604081019190915260600190565b6001600160a01b03929092168252602082015260400190565b901515815260200190565b6020808252601590820152747472616e73666572656e6369612066616c6c69646160581b604082015260600190565b6020808252601390820152727472616e73616363696f6e2066616c6c69646160681b604082015260600190565b60208082526021908201527f73616c646f20696e737566696369656e746520656e20656c20636f6e747261746040820152606f60f81b606082015260800190565b60208082526017908201527f6170726f766163696f6e20696e737566696369656e7465000000000000000000604082015260600190565b60208082526025908201527f6e6f2068612066696e616c697a61646f20656c207469656d706f2064656c20746040820152646f726e656f60d81b606082015260800190565b6020808252601190820152706974656d2079612061647175697269646f60781b604082015260600190565b60208082526012908201527173616c646f20696e737566696369656e746560701b604082015260600190565b90815260200190565b60008219821115611a8657611a86611add565b500190565b600082611aa657634e487b7160e01b81526012600452602481fd5b500490565b600082821015611abd57611abd611add565b500390565b6000600019821415611ad657611ad6611add565b5060010190565b634e487b7160e01b600052601160045260246000fd5b634e487b7160e01b600052604160045260246000fd5b6001600160a01b0381168114611b1e57600080fd5b5056fea26469706673582212204d032791b40f255d387149b40def59a40994d6acfdf1270036bbb2d5e2a1bfa464736f6c63430008000033",
    "sourcePath": "c:/Users/STC/Documents/GitHub/goal-crypto/contracts/Votacion/fan.sol",
    "compiler": {
        "name": "solc",
        "version": "0.8.0+commit.c7dfd78e"
    },
    "functionHashes": {
        "ReIniciar()": "cff6f53e",
        "admin(address)": "63a846f8",
        "fans(address)": "074afa6d",
        "fin()": "00a36947",
        "ganador()": "9114bde8",
        "items(uint256)": "bfb231d2",
        "largoFanItems(address)": "e9a72315",
        "largoItems()": "238393e4",
        "makeNewAdmin(address)": "69ed1e0a",
        "makeRemoveAdmin(address)": "70a0966b",
        "owner()": "8da5cb5b",
        "pool()": "16f0115b",
        "reclamar()": "eecd9c85",
        "redimBNB()": "fd14d598",
        "redimToken(uint256)": "5d553a9f",
        "setGanador(uint256)": "35e756c9",
        "setToken(address)": "144fa6d7",
        "tiempo()": "50188c08",
        "transferOwnership(address)": "f2fde38b",
        "updateFases(uint256[])": "366cb3f2",
        "updatePrecios(uint256[])": "9d4c2be9",
        "valor()": "ecbac7cf",
        "verFanItems(address,uint256)": "4b0749cc",
        "verGanador()": "8f9607cb",
        "votar(uint256)": "21606831",
        "votos(uint256)": "b2731f0e"
    },
    "gasEstimates": {
        "creation": {
            "codeDepositCost": "1399800",
            "executionCost": "infinite",
            "totalCost": "infinite"
        },
        "external": {
            "": "241",
            "ReIniciar()": "infinite",
            "admin(address)": "1347",
            "fans(address)": "1304",
            "fin()": "2817",
            "ganador()": "infinite",
            "items(uint256)": "3702",
            "largoFanItems(address)": "infinite",
            "largoItems()": "1162",
            "makeNewAdmin(address)": "23414",
            "makeRemoveAdmin(address)": "23308",
            "owner()": "1115",
            "pool()": "1118",
            "reclamar()": "infinite",
            "redimBNB()": "infinite",
            "redimToken(uint256)": "infinite",
            "setGanador(uint256)": "24624",
            "setToken(address)": "43061",
            "tiempo()": "272",
            "transferOwnership(address)": "24527",
            "updateFases(uint256[])": "infinite",
            "updatePrecios(uint256[])": "infinite",
            "valor()": "12225",
            "verFanItems(address,uint256)": "infinite",
            "verGanador()": "infinite",
            "votar(uint256)": "infinite",
            "votos(uint256)": "2129"
        }
    }
}