{
    "contractName": "StakingPool",
    "abi": [
        {
            "inputs": [],
            "stateMutability": "nonpayable",
            "type": "constructor"
        },
        {
            "anonymous": false,
            "inputs": [
                {
                    "indexed": true,
                    "internalType": "address",
                    "name": "admin",
                    "type": "address"
                }
            ],
            "name": "AdminRemoved",
            "type": "event"
        },
        {
            "anonymous": false,
            "inputs": [
                {
                    "indexed": true,
                    "internalType": "address",
                    "name": "admin",
                    "type": "address"
                }
            ],
            "name": "NewAdmin",
            "type": "event"
        },
        {
            "anonymous": false,
            "inputs": [
                {
                    "indexed": true,
                    "internalType": "address",
                    "name": "previousOwner",
                    "type": "address"
                },
                {
                    "indexed": true,
                    "internalType": "address",
                    "name": "newOwner",
                    "type": "address"
                }
            ],
            "name": "OwnershipTransferred",
            "type": "event"
        },
        {
            "stateMutability": "payable",
            "type": "fallback"
        },
        {
            "inputs": [],
            "name": "CSC_PAY_BALANCE",
            "outputs": [
                {
                    "internalType": "uint256",
                    "name": "",
                    "type": "uint256"
                }
            ],
            "stateMutability": "view",
            "type": "function"
        },
        {
            "inputs": [
                {
                    "internalType": "address",
                    "name": "_tokenTRC20",
                    "type": "address"
                }
            ],
            "name": "ChangeToken",
            "outputs": [
                {
                    "internalType": "bool",
                    "name": "",
                    "type": "bool"
                }
            ],
            "stateMutability": "nonpayable",
            "type": "function"
        },
        {
            "inputs": [
                {
                    "internalType": "address",
                    "name": "_tokenTRC20",
                    "type": "address"
                }
            ],
            "name": "ChangeTokenOTRO",
            "outputs": [
                {
                    "internalType": "bool",
                    "name": "",
                    "type": "bool"
                }
            ],
            "stateMutability": "nonpayable",
            "type": "function"
        },
        {
            "inputs": [],
            "name": "DISTRIBUTION_POOL",
            "outputs": [
                {
                    "internalType": "uint256",
                    "name": "",
                    "type": "uint256"
                }
            ],
            "stateMutability": "view",
            "type": "function"
        },
        {
            "inputs": [],
            "name": "MIN_DEPOSIT",
            "outputs": [
                {
                    "internalType": "uint256",
                    "name": "",
                    "type": "uint256"
                }
            ],
            "stateMutability": "view",
            "type": "function"
        },
        {
            "inputs": [],
            "name": "PAYER_POOL_BALANCE",
            "outputs": [
                {
                    "internalType": "uint256",
                    "name": "",
                    "type": "uint256"
                }
            ],
            "stateMutability": "view",
            "type": "function"
        },
        {
            "inputs": [],
            "name": "TOTAL_PARTICIPACIONES",
            "outputs": [
                {
                    "internalType": "uint256",
                    "name": "",
                    "type": "uint256"
                }
            ],
            "stateMutability": "view",
            "type": "function"
        },
        {
            "inputs": [
                {
                    "internalType": "uint256",
                    "name": "_inicio",
                    "type": "uint256"
                }
            ],
            "name": "actualizarFechas",
            "outputs": [
                {
                    "internalType": "bool",
                    "name": "",
                    "type": "bool"
                }
            ],
            "stateMutability": "nonpayable",
            "type": "function"
        },
        {
            "inputs": [
                {
                    "internalType": "address",
                    "name": "",
                    "type": "address"
                }
            ],
            "name": "admin",
            "outputs": [
                {
                    "internalType": "bool",
                    "name": "",
                    "type": "bool"
                }
            ],
            "stateMutability": "view",
            "type": "function"
        },
        {
            "inputs": [
                {
                    "internalType": "address",
                    "name": "",
                    "type": "address"
                },
                {
                    "internalType": "uint256",
                    "name": "",
                    "type": "uint256"
                }
            ],
            "name": "deposito",
            "outputs": [
                {
                    "internalType": "uint256",
                    "name": "",
                    "type": "uint256"
                }
            ],
            "stateMutability": "view",
            "type": "function"
        },
        {
            "inputs": [
                {
                    "internalType": "address",
                    "name": "_user",
                    "type": "address"
                }
            ],
            "name": "depositoTotal",
            "outputs": [
                {
                    "internalType": "uint256[]",
                    "name": "",
                    "type": "uint256[]"
                }
            ],
            "stateMutability": "view",
            "type": "function"
        },
        {
            "inputs": [
                {
                    "internalType": "address",
                    "name": "_user",
                    "type": "address"
                }
            ],
            "name": "dividendos",
            "outputs": [
                {
                    "internalType": "uint256[]",
                    "name": "",
                    "type": "uint256[]"
                }
            ],
            "stateMutability": "view",
            "type": "function"
        },
        {
            "inputs": [
                {
                    "internalType": "address",
                    "name": "",
                    "type": "address"
                },
                {
                    "internalType": "uint256",
                    "name": "",
                    "type": "uint256"
                }
            ],
            "name": "fecha",
            "outputs": [
                {
                    "internalType": "uint256",
                    "name": "",
                    "type": "uint256"
                }
            ],
            "stateMutability": "view",
            "type": "function"
        },
        {
            "inputs": [],
            "name": "inicio",
            "outputs": [
                {
                    "internalType": "uint256",
                    "name": "",
                    "type": "uint256"
                }
            ],
            "stateMutability": "view",
            "type": "function"
        },
        {
            "inputs": [],
            "name": "lastPay",
            "outputs": [
                {
                    "internalType": "uint256",
                    "name": "",
                    "type": "uint256"
                }
            ],
            "stateMutability": "view",
            "type": "function"
        },
        {
            "inputs": [
                {
                    "internalType": "address payable",
                    "name": "_newadmin",
                    "type": "address"
                }
            ],
            "name": "makeNewAdmin",
            "outputs": [],
            "stateMutability": "nonpayable",
            "type": "function"
        },
        {
            "inputs": [
                {
                    "internalType": "address payable",
                    "name": "_oldadmin",
                    "type": "address"
                }
            ],
            "name": "makeRemoveAdmin",
            "outputs": [],
            "stateMutability": "nonpayable",
            "type": "function"
        },
        {
            "inputs": [],
            "name": "owner",
            "outputs": [
                {
                    "internalType": "address payable",
                    "name": "",
                    "type": "address"
                }
            ],
            "stateMutability": "view",
            "type": "function"
        },
        {
            "inputs": [],
            "name": "pagarDividendos",
            "outputs": [],
            "stateMutability": "nonpayable",
            "type": "function"
        },
        {
            "inputs": [
                {
                    "internalType": "address",
                    "name": "_user",
                    "type": "address"
                }
            ],
            "name": "participacion",
            "outputs": [
                {
                    "internalType": "uint256[]",
                    "name": "",
                    "type": "uint256[]"
                }
            ],
            "stateMutability": "view",
            "type": "function"
        },
        {
            "inputs": [],
            "name": "precision",
            "outputs": [
                {
                    "internalType": "uint256",
                    "name": "",
                    "type": "uint256"
                }
            ],
            "stateMutability": "view",
            "type": "function"
        },
        {
            "inputs": [],
            "name": "redimBNB",
            "outputs": [
                {
                    "internalType": "uint256",
                    "name": "",
                    "type": "uint256"
                }
            ],
            "stateMutability": "nonpayable",
            "type": "function"
        },
        {
            "inputs": [
                {
                    "internalType": "uint256",
                    "name": "_value",
                    "type": "uint256"
                }
            ],
            "name": "redimCSC",
            "outputs": [
                {
                    "internalType": "uint256",
                    "name": "",
                    "type": "uint256"
                }
            ],
            "stateMutability": "nonpayable",
            "type": "function"
        },
        {
            "inputs": [],
            "name": "redimOTRO",
            "outputs": [
                {
                    "internalType": "uint256",
                    "name": "",
                    "type": "uint256"
                }
            ],
            "stateMutability": "nonpayable",
            "type": "function"
        },
        {
            "inputs": [
                {
                    "internalType": "address",
                    "name": "",
                    "type": "address"
                },
                {
                    "internalType": "uint256",
                    "name": "",
                    "type": "uint256"
                }
            ],
            "name": "retirado",
            "outputs": [
                {
                    "internalType": "uint256",
                    "name": "",
                    "type": "uint256"
                }
            ],
            "stateMutability": "view",
            "type": "function"
        },
        {
            "inputs": [
                {
                    "internalType": "address",
                    "name": "_user",
                    "type": "address"
                }
            ],
            "name": "retiradoTotal",
            "outputs": [
                {
                    "internalType": "uint256",
                    "name": "",
                    "type": "uint256"
                }
            ],
            "stateMutability": "view",
            "type": "function"
        },
        {
            "inputs": [
                {
                    "internalType": "uint256",
                    "name": "_deposito",
                    "type": "uint256"
                }
            ],
            "name": "retiro",
            "outputs": [],
            "stateMutability": "nonpayable",
            "type": "function"
        },
        {
            "inputs": [
                {
                    "internalType": "address",
                    "name": "_user",
                    "type": "address"
                }
            ],
            "name": "retiroDividendos",
            "outputs": [],
            "stateMutability": "nonpayable",
            "type": "function"
        },
        {
            "inputs": [
                {
                    "internalType": "uint256",
                    "name": "_token",
                    "type": "uint256"
                }
            ],
            "name": "staking",
            "outputs": [],
            "stateMutability": "nonpayable",
            "type": "function"
        },
        {
            "inputs": [
                {
                    "internalType": "address",
                    "name": "_user",
                    "type": "address"
                }
            ],
            "name": "totalDividendos",
            "outputs": [
                {
                    "internalType": "uint256",
                    "name": "",
                    "type": "uint256"
                }
            ],
            "stateMutability": "view",
            "type": "function"
        },
        {
            "inputs": [
                {
                    "internalType": "address",
                    "name": "_user",
                    "type": "address"
                }
            ],
            "name": "totalDividendosAPagar",
            "outputs": [
                {
                    "internalType": "uint256",
                    "name": "",
                    "type": "uint256"
                }
            ],
            "stateMutability": "view",
            "type": "function"
        },
        {
            "inputs": [
                {
                    "internalType": "address payable",
                    "name": "newOwner",
                    "type": "address"
                }
            ],
            "name": "transferOwnership",
            "outputs": [],
            "stateMutability": "nonpayable",
            "type": "function"
        },
        {
            "inputs": [
                {
                    "internalType": "address",
                    "name": "",
                    "type": "address"
                }
            ],
            "name": "usuarios",
            "outputs": [
                {
                    "internalType": "uint256",
                    "name": "participacion",
                    "type": "uint256"
                }
            ],
            "stateMutability": "view",
            "type": "function"
        },
        {
            "stateMutability": "payable",
            "type": "receive"
        }
    ],
    "bytecode": "60806040526002805473389ccc30de1d311738dffd3f60d4fd6188970f456001600160a01b03199182168117909255600380549091169091179055678ac7230489e800006007556a01b98413944c8e2d20000060085563618c32d0600b819055600c556012600d5534801561007357600080fd5b50600080546001600160a01b03191633908117825581526001602081905260408220805460ff191690911790556117769081906100b090396000f3fe6080604052600436106101da5760003560e01c806396ba536311610101578063d3b5dc3b1161009a578063df62f4101161006c578063df62f41014610566578063e1e158a51461057c578063f2fde38b14610592578063f6b91ea9146105b2578063fd14d598146105df57005b8063d3b5dc3b146104fa578063d86bae6314610510578063d8765a9c14610530578063dba4cc341461054657005b8063b4c48dc8116100d3578063b4c48dc814610485578063b5e860a1146104a5578063bc896d53146104ba578063c4f58954146104da57005b806396ba536314610405578063a898a17414610425578063a923c10914610445578063ae77652f1461046557005b806371cac4571161017357806389ed32b21161014557806389ed32b2146103775780638d1845ab1461038d5780638da5cb5b146103ad578063926220f8146103e557005b806371cac4571461030f57806372a501ae1461032f5780637be0df971461034f5780638929cbc51461036257005b80633624850e116101ac5780633624850e1461027957806363a846f81461028f57806369ed1e0a146102cf57806370a0966b146102ef57005b8063170d3eb6146101e3578063190b6d87146102165780631dbb2a2214610243578063315a25a11461026357005b366101e157005b005b3480156101ef57600080fd5b506102036101fe3660046114ae565b6105f4565b6040519081526020015b60405180910390f35b34801561022257600080fd5b506102366102313660046114da565b610625565b60405161020d91906114f7565b34801561024f57600080fd5b506101e161025e36600461153b565b6106cb565b34801561026f57600080fd5b5061020360095481565b34801561028557600080fd5b50610203600b5481565b34801561029b57600080fd5b506102bf6102aa3660046114da565b60016020526000908152604090205460ff1681565b604051901515815260200161020d565b3480156102db57600080fd5b506101e16102ea3660046114da565b6107e1565b3480156102fb57600080fd5b506101e161030a3660046114da565b61086f565b34801561031b57600080fd5b5061020361032a3660046114da565b6108f7565b34801561033b57600080fd5b5061020361034a3660046114ae565b610967565b34801561035b57600080fd5b5047610203565b34801561036e57600080fd5b50610203610983565b34801561038357600080fd5b5061020360085481565b34801561039957600080fd5b506102036103a83660046114da565b610a92565b3480156103b957600080fd5b506000546103cd906001600160a01b031681565b6040516001600160a01b03909116815260200161020d565b3480156103f157600080fd5b506102bf61040036600461153b565b610b12565b34801561041157600080fd5b506102bf6104203660046114da565b610b3c565b34801561043157600080fd5b506101e16104403660046114da565b610b82565b34801561045157600080fd5b506102bf6104603660046114da565b610cb6565b34801561047157600080fd5b5061020361048036600461153b565b610cfc565b34801561049157600080fd5b506102366104a03660046114da565b610e14565b3480156104b157600080fd5b506101e1610e80565b3480156104c657600080fd5b506101e16104d536600461153b565b610eb7565b3480156104e657600080fd5b506102036104f53660046114da565b61122a565b34801561050657600080fd5b50610203600d5481565b34801561051c57600080fd5b5061023661052b3660046114da565b61127e565b34801561053c57600080fd5b50610203600a5481565b34801561055257600080fd5b506102036105613660046114ae565b61130a565b34801561057257600080fd5b50610203600c5481565b34801561058857600080fd5b5061020360075481565b34801561059e57600080fd5b506101e16105ad3660046114da565b611326565b3480156105be57600080fd5b506102036105cd3660046114da565b600e6020526000908152604090205481565b3480156105eb57600080fd5b506102036113b4565b6004602052816000526040600020818154811061061057600080fd5b90600052602060002001600091509150505481565b6060600061063283610e14565b9050606060005b82518110156106c3576106946009546064610654919061156a565b61068e600d54600a6106669190611665565b86858151811061067857610678611678565b602002602001015161142390919063ffffffff16565b90611461565b8282815181106106a6576106a6611678565b6020908102919091010152806106bb8161168e565b915050610639565b509392505050565b600b544210156106da57600080fd5b6007548110156106e957600080fd5b6002546040516323b872dd60e01b8152336004820152306024820152604481018390526001600160a01b03909116906323b872dd906064016020604051808303816000875af1158015610740573d6000803e3d6000fd5b505050506040513d601f19601f8201168201806040525081019061076491906116a7565b61076d57600080fd5b336000818152600560209081526040808320805460018181018355918552838520429101558484526004835281842080548083018255908552838520018690559383526006825282208054938401815582528120909101819055600980548392906107d99084906116c9565b909155505050565b6000546001600160a01b0316336001600160a01b03161461080157600080fd5b6001600160a01b03811661081457600080fd5b6040516001600160a01b038216907f71614071b88dee5e0b2ae578a9dd7b2ebbe9ae832ba419dc0242cd065a290b6c90600090a26001600160a01b03166000908152600160208190526040909120805460ff19169091179055565b6000546001600160a01b0316336001600160a01b03161461088f57600080fd5b6001600160a01b0381166108a257600080fd5b6040516001600160a01b038216907fa3b62bc36326052d97ea62d63c3d60308ed4c3ea8ac079dd8499f1e9c4f80c0f90600090a26001600160a01b03166000908152600160205260409020805460ff19169055565b6000806109038361127e565b90506000805b825181101561094b5782818151811061092457610924611678565b60200260200101518261093791906116c9565b9150806109438161168e565b915050610909565b5061095f61095885610a92565b829061147b565b949350505050565b6005602052816000526040600020818154811061061057600080fd5b600080546001600160a01b0316336001600160a01b0316146109a457600080fd5b6003546040516370a0823160e01b81523060048201526000916001600160a01b0316906370a0823190602401602060405180830381865afa1580156109ed573d6000803e3d6000fd5b505050506040513d601f19601f82011682018060405250810190610a1191906116dc565b60035460005460405163a9059cbb60e01b81526001600160a01b03918216600482015260248101849052929350169063a9059cbb906044016020604051808303816000875af1158015610a68573d6000803e3d6000fd5b505050506040513d601f19601f82011682018060405250810190610a8c91906116a7565b50905090565b600080805b6001600160a01b038416600090815260046020526040902054811015610b0b576001600160a01b0384166000908152600660205260409020805482908110610ae157610ae1611678565b906000526020600020015482610af791906116c9565b915080610b038161168e565b915050610a97565b5092915050565b600080546001600160a01b0316336001600160a01b031614610b3357600080fd5b50600b55600190565b600080546001600160a01b0316336001600160a01b031614610b5d57600080fd5b50600380546001600160a01b0383166001600160a01b03199091161790556001919050565b6002546001600160a01b031663a9059cbb33610b9d846108f7565b6040516001600160e01b031960e085901b1681526001600160a01b03909216600483015260248201526044016020604051808303816000875af1158015610be8573d6000803e3d6000fd5b505050506040513d601f19601f82011682018060405250810190610c0c91906116a7565b610c1557600080fd5b60005b610c218261127e565b51811015610cb257610c328261127e565b8181518110610c4357610c43611678565b602002602001015160066000846001600160a01b03166001600160a01b031681526020019081526020016000208281548110610c8157610c81611678565b906000526020600020016000828254610c9a91906116c9565b90915550819050610caa8161168e565b915050610c18565b5050565b600080546001600160a01b0316336001600160a01b031614610cd757600080fd5b50600280546001600160a01b0383166001600160a01b03199091161790556001919050565b600080546001600160a01b0316336001600160a01b031614610d1d57600080fd5b6002546040516370a0823160e01b815230600482015283916001600160a01b0316906370a0823190602401602060405180830381865afa158015610d65573d6000803e3d6000fd5b505050506040513d601f19601f82011682018060405250810190610d8991906116dc565b1015610d9457600080fd5b60025460005460405163a9059cbb60e01b81526001600160a01b0391821660048201526024810185905291169063a9059cbb906044016020604051808303816000875af1158015610de9573d6000803e3d6000fd5b505050506040513d601f19601f82011682018060405250810190610e0d91906116a7565b5090919050565b6001600160a01b038116600090815260046020908152604091829020805483518184028101840190945280845260609392830182828015610e7457602002820191906000526020600020905b815481526020019060010190808311610e60575b50505050509050919050565b610e9b606461068e600260085461142390919063ffffffff16565b600a6000828254610eac91906116c9565b909155505042600c55565b6000610ec2336108f7565b1115610ed157610ed133610b82565b336000908152600560205260409020805442919083908110610ef557610ef5611678565b906000526020600020015462015180610f0e91906116c9565b1015610f1957600080fd5b336000908152600460205260409020805482908110610f3a57610f3a611678565b90600052602060002001546009541015610f5357600080fd5b60025433600081815260046020526040902080546001600160a01b039093169263a9059cbb92919085908110610f8b57610f8b611678565b6000918252602090912001546040516001600160e01b031960e085901b1681526001600160a01b03909216600483015260248201526044016020604051808303816000875af1158015610fe2573d6000803e3d6000fd5b505050506040513d601f19601f8201168201806040525081019061100691906116a7565b61100f57600080fd5b33600090815260046020526040902080548290811061103057611030611678565b90600052602060002001546009600082825461104c91906116f5565b9091555050336000908152600460205260409020805461106e906001906116f5565b8154811061107e5761107e611678565b6000918252602080832090910154338352600490915260409091208054839081106110ab576110ab611678565b60009182526020808320909101929092553381526004909152604090208054806110d7576110d7611708565b6000828152602080822083016000199081018390559092019092553382526005905260409020805461110b906001906116f5565b8154811061111b5761111b611678565b60009182526020808320909101543383526005909152604090912080548390811061114857611148611678565b600091825260208083209091019290925533815260059091526040902080548061117457611174611708565b600082815260208082208301600019908101839055909201909255338252600690526040902080546111a8906001906116f5565b815481106111b8576111b8611678565b6000918252602080832090910154338352600690915260409091208054839081106111e5576111e5611678565b600091825260208083209091019290925533815260069091526040902080548061121157611211611708565b6001900381819060005260206000200160009055905550565b6000806112368361127e565b90506000805b82518110156106c35782818151811061125757611257611678565b60200260200101518261126a91906116c9565b9150806112768161168e565b91505061123c565b6060600061128b83610625565b9050606060005b82518110156106c3576112db600d54600a6112ad9190611665565b61068e8584815181106112c2576112c2611678565b6020026020010151600a5461142390919063ffffffff16565b8282815181106112ed576112ed611678565b6020908102919091010152806113028161168e565b915050611292565b6006602052816000526040600020818154811061061057600080fd5b6000546001600160a01b0316336001600160a01b03161461134657600080fd5b6001600160a01b03811661135957600080fd5b600080546040516001600160a01b03808516939216917f8be0079c531659141344cd1fd0a4f28419497f9722a3daafe3b4186f6b6457e091a3600080546001600160a01b0319166001600160a01b0392909216919091179055565b600080546001600160a01b0316336001600160a01b0316146113d557600080fd5b476000036113e257600080fd5b600080546040516001600160a01b03909116914780156108fc02929091818181858888f1935050505015801561141c573d6000803e3d6000fd5b5047905090565b6000826000036114355750600061145b565b6000611441838561156a565b90508261144e858361171e565b1461145857600080fd5b90505b92915050565b600080821161146f57600080fd5b600061095f838561171e565b60008282111561148a57600080fd5b600061095f83856116f5565b6001600160a01b03811681146114ab57600080fd5b50565b600080604083850312156114c157600080fd5b82356114cc81611496565b946020939093013593505050565b6000602082840312156114ec57600080fd5b813561145881611496565b6020808252825182820181905260009190848201906040850190845b8181101561152f57835183529284019291840191600101611513565b50909695505050505050565b60006020828403121561154d57600080fd5b5035919050565b634e487b7160e01b600052601160045260246000fd5b808202811582820484141761145b5761145b611554565b600181815b808511156115bc5781600019048211156115a2576115a2611554565b808516156115af57918102915b93841c9390800290611586565b509250929050565b6000826115d35750600161145b565b816115e05750600061145b565b81600181146115f657600281146116005761161c565b600191505061145b565b60ff84111561161157611611611554565b50506001821b61145b565b5060208310610133831016604e8410600b841016171561163f575081810a61145b565b6116498383611581565b806000190482111561165d5761165d611554565b029392505050565b600061167183836115c4565b9392505050565b634e487b7160e01b600052603260045260246000fd5b6000600182016116a0576116a0611554565b5060010190565b6000602082840312156116b957600080fd5b8151801515811461145857600080fd5b8082018082111561145b5761145b611554565b6000602082840312156116ee57600080fd5b5051919050565b8181038181111561145b5761145b611554565b634e487b7160e01b600052603160045260246000fd5b60008261173b57634e487b7160e01b600052601260045260246000fd5b50049056fea26469706673582212202c4fcffe90582ac3e8110e7a35e1bfcee5e90041fb58566668fd14c34856cbae64736f6c63430008110033",
    "sourcePath": "c:/Users/STC/Documents/GitHub/goal-crypto/contracts/Staking/staking-deposito.sol",
    "compiler": {
        "name": "solc",
        "version": "0.8.17+commit.8df45f5f"
    },
    "functionHashes": {
        "CSC_PAY_BALANCE()": "7be0df97",
        "ChangeToken(address)": "a923c109",
        "ChangeTokenOTRO(address)": "96ba5363",
        "DISTRIBUTION_POOL()": "89ed32b2",
        "MIN_DEPOSIT()": "e1e158a5",
        "PAYER_POOL_BALANCE()": "d8765a9c",
        "TOTAL_PARTICIPACIONES()": "315a25a1",
        "actualizarFechas(uint256)": "926220f8",
        "admin(address)": "63a846f8",
        "deposito(address,uint256)": "170d3eb6",
        "depositoTotal(address)": "b4c48dc8",
        "dividendos(address)": "d86bae63",
        "fecha(address,uint256)": "72a501ae",
        "inicio()": "3624850e",
        "lastPay()": "df62f410",
        "makeNewAdmin(address)": "69ed1e0a",
        "makeRemoveAdmin(address)": "70a0966b",
        "owner()": "8da5cb5b",
        "pagarDividendos()": "b5e860a1",
        "participacion(address)": "190b6d87",
        "precision()": "d3b5dc3b",
        "redimBNB()": "fd14d598",
        "redimCSC(uint256)": "ae77652f",
        "redimOTRO()": "8929cbc5",
        "retirado(address,uint256)": "dba4cc34",
        "retiradoTotal(address)": "8d1845ab",
        "retiro(uint256)": "bc896d53",
        "retiroDividendos(address)": "a898a174",
        "staking(uint256)": "1dbb2a22",
        "totalDividendos(address)": "c4f58954",
        "totalDividendosAPagar(address)": "71cac457",
        "transferOwnership(address)": "f2fde38b",
        "usuarios(address)": "f6b91ea9"
    },
    "gasEstimates": {
        "creation": {
            "codeDepositCost": "1201200",
            "executionCost": "208796",
            "totalCost": "1409996"
        },
        "external": {
            "": "208",
            "CSC_PAY_BALANCE()": "273",
            "ChangeToken(address)": "26887",
            "ChangeTokenOTRO(address)": "26843",
            "DISTRIBUTION_POOL()": "2329",
            "MIN_DEPOSIT()": "2350",
            "PAYER_POOL_BALANCE()": "2373",
            "TOTAL_PARTICIPACIONES()": "2397",
            "actualizarFechas(uint256)": "24667",
            "admin(address)": "2597",
            "deposito(address,uint256)": "4774",
            "depositoTotal(address)": "infinite",
            "dividendos(address)": "infinite",
            "fecha(address,uint256)": "4795",
            "inicio()": "2330",
            "lastPay()": "2328",
            "makeNewAdmin(address)": "28070",
            "makeRemoveAdmin(address)": "28074",
            "owner()": "2426",
            "pagarDividendos()": "infinite",
            "participacion(address)": "infinite",
            "precision()": "2329",
            "redimBNB()": "infinite",
            "redimCSC(uint256)": "infinite",
            "redimOTRO()": "infinite",
            "retirado(address,uint256)": "4838",
            "retiradoTotal(address)": "infinite",
            "retiro(uint256)": "infinite",
            "retiroDividendos(address)": "infinite",
            "staking(uint256)": "infinite",
            "totalDividendos(address)": "infinite",
            "totalDividendosAPagar(address)": "infinite",
            "transferOwnership(address)": "30504",
            "usuarios(address)": "2616"
        }
    }
}