{
    "contractName": "StakingPool",
    "abi": [
        {
            "inputs": [],
            "stateMutability": "nonpayable",
            "type": "constructor"
        },
        {
            "anonymous": false,
            "inputs": [
                {
                    "indexed": true,
                    "internalType": "address",
                    "name": "admin",
                    "type": "address"
                }
            ],
            "name": "AdminRemoved",
            "type": "event"
        },
        {
            "anonymous": false,
            "inputs": [
                {
                    "indexed": true,
                    "internalType": "address",
                    "name": "admin",
                    "type": "address"
                }
            ],
            "name": "NewAdmin",
            "type": "event"
        },
        {
            "anonymous": false,
            "inputs": [
                {
                    "indexed": true,
                    "internalType": "address",
                    "name": "previousOwner",
                    "type": "address"
                },
                {
                    "indexed": true,
                    "internalType": "address",
                    "name": "newOwner",
                    "type": "address"
                }
            ],
            "name": "OwnershipTransferred",
            "type": "event"
        },
        {
            "stateMutability": "payable",
            "type": "fallback"
        },
        {
            "inputs": [
                {
                    "internalType": "address",
                    "name": "_tokenTRC20",
                    "type": "address"
                }
            ],
            "name": "ChangeToken",
            "outputs": [],
            "stateMutability": "nonpayable",
            "type": "function"
        },
        {
            "inputs": [
                {
                    "internalType": "address",
                    "name": "_tokenTRC20",
                    "type": "address"
                }
            ],
            "name": "ChangeTokenOTRO",
            "outputs": [],
            "stateMutability": "nonpayable",
            "type": "function"
        },
        {
            "inputs": [],
            "name": "DISTRIBUTION_POOL",
            "outputs": [
                {
                    "internalType": "uint256",
                    "name": "",
                    "type": "uint256"
                }
            ],
            "stateMutability": "view",
            "type": "function"
        },
        {
            "inputs": [],
            "name": "MAX_DEPOSIT",
            "outputs": [
                {
                    "internalType": "uint256",
                    "name": "",
                    "type": "uint256"
                }
            ],
            "stateMutability": "view",
            "type": "function"
        },
        {
            "inputs": [],
            "name": "MIN_DEPOSIT",
            "outputs": [
                {
                    "internalType": "uint256",
                    "name": "",
                    "type": "uint256"
                }
            ],
            "stateMutability": "view",
            "type": "function"
        },
        {
            "inputs": [],
            "name": "PAYER_POOL_BALANCE",
            "outputs": [
                {
                    "internalType": "uint256",
                    "name": "",
                    "type": "uint256"
                }
            ],
            "stateMutability": "view",
            "type": "function"
        },
        {
            "inputs": [],
            "name": "RATE",
            "outputs": [
                {
                    "internalType": "uint256",
                    "name": "",
                    "type": "uint256"
                }
            ],
            "stateMutability": "view",
            "type": "function"
        },
        {
            "inputs": [],
            "name": "TIME_DISTRIBUTION",
            "outputs": [
                {
                    "internalType": "uint256",
                    "name": "",
                    "type": "uint256"
                }
            ],
            "stateMutability": "view",
            "type": "function"
        },
        {
            "inputs": [],
            "name": "TOTAL_PARTICIPACIONES",
            "outputs": [
                {
                    "internalType": "uint256",
                    "name": "",
                    "type": "uint256"
                }
            ],
            "stateMutability": "view",
            "type": "function"
        },
        {
            "inputs": [],
            "name": "TOTAL_STAKING",
            "outputs": [
                {
                    "internalType": "uint256",
                    "name": "",
                    "type": "uint256"
                }
            ],
            "stateMutability": "view",
            "type": "function"
        },
        {
            "inputs": [
                {
                    "internalType": "uint256",
                    "name": "_inicio",
                    "type": "uint256"
                }
            ],
            "name": "actualizarFechas",
            "outputs": [],
            "stateMutability": "nonpayable",
            "type": "function"
        },
        {
            "inputs": [
                {
                    "internalType": "address",
                    "name": "",
                    "type": "address"
                }
            ],
            "name": "admin",
            "outputs": [
                {
                    "internalType": "bool",
                    "name": "",
                    "type": "bool"
                }
            ],
            "stateMutability": "view",
            "type": "function"
        },
        {
            "inputs": [
                {
                    "internalType": "uint256",
                    "name": "_value",
                    "type": "uint256"
                }
            ],
            "name": "compra",
            "outputs": [
                {
                    "internalType": "uint256",
                    "name": "",
                    "type": "uint256"
                }
            ],
            "stateMutability": "view",
            "type": "function"
        },
        {
            "inputs": [
                {
                    "internalType": "address",
                    "name": "",
                    "type": "address"
                },
                {
                    "internalType": "uint256",
                    "name": "",
                    "type": "uint256"
                }
            ],
            "name": "deposito",
            "outputs": [
                {
                    "internalType": "uint256",
                    "name": "",
                    "type": "uint256"
                }
            ],
            "stateMutability": "view",
            "type": "function"
        },
        {
            "inputs": [
                {
                    "internalType": "address",
                    "name": "_user",
                    "type": "address"
                }
            ],
            "name": "depositoTotal",
            "outputs": [
                {
                    "internalType": "uint256[]",
                    "name": "",
                    "type": "uint256[]"
                }
            ],
            "stateMutability": "view",
            "type": "function"
        },
        {
            "inputs": [
                {
                    "internalType": "address",
                    "name": "_user",
                    "type": "address"
                }
            ],
            "name": "depositoTotalToken",
            "outputs": [
                {
                    "internalType": "uint256",
                    "name": "",
                    "type": "uint256"
                }
            ],
            "stateMutability": "view",
            "type": "function"
        },
        {
            "inputs": [
                {
                    "internalType": "address",
                    "name": "_user",
                    "type": "address"
                }
            ],
            "name": "dividendos",
            "outputs": [
                {
                    "internalType": "uint256[]",
                    "name": "",
                    "type": "uint256[]"
                }
            ],
            "stateMutability": "view",
            "type": "function"
        },
        {
            "inputs": [],
            "name": "duracion",
            "outputs": [
                {
                    "internalType": "uint256",
                    "name": "",
                    "type": "uint256"
                }
            ],
            "stateMutability": "view",
            "type": "function"
        },
        {
            "inputs": [
                {
                    "internalType": "address",
                    "name": "",
                    "type": "address"
                },
                {
                    "internalType": "uint256",
                    "name": "",
                    "type": "uint256"
                }
            ],
            "name": "fecha",
            "outputs": [
                {
                    "internalType": "uint256",
                    "name": "",
                    "type": "uint256"
                }
            ],
            "stateMutability": "view",
            "type": "function"
        },
        {
            "inputs": [],
            "name": "inicio",
            "outputs": [
                {
                    "internalType": "uint256",
                    "name": "",
                    "type": "uint256"
                }
            ],
            "stateMutability": "view",
            "type": "function"
        },
        {
            "inputs": [],
            "name": "lastPay",
            "outputs": [
                {
                    "internalType": "uint256",
                    "name": "",
                    "type": "uint256"
                }
            ],
            "stateMutability": "view",
            "type": "function"
        },
        {
            "inputs": [
                {
                    "internalType": "address payable",
                    "name": "_newadmin",
                    "type": "address"
                }
            ],
            "name": "makeNewAdmin",
            "outputs": [],
            "stateMutability": "nonpayable",
            "type": "function"
        },
        {
            "inputs": [
                {
                    "internalType": "address payable",
                    "name": "_oldadmin",
                    "type": "address"
                }
            ],
            "name": "makeRemoveAdmin",
            "outputs": [],
            "stateMutability": "nonpayable",
            "type": "function"
        },
        {
            "inputs": [],
            "name": "owner",
            "outputs": [
                {
                    "internalType": "address payable",
                    "name": "",
                    "type": "address"
                }
            ],
            "stateMutability": "view",
            "type": "function"
        },
        {
            "inputs": [],
            "name": "pagarDividendos",
            "outputs": [],
            "stateMutability": "nonpayable",
            "type": "function"
        },
        {
            "inputs": [
                {
                    "internalType": "uint256",
                    "name": "_value",
                    "type": "uint256"
                }
            ],
            "name": "pago",
            "outputs": [
                {
                    "internalType": "uint256",
                    "name": "",
                    "type": "uint256"
                }
            ],
            "stateMutability": "view",
            "type": "function"
        },
        {
            "inputs": [],
            "name": "precision",
            "outputs": [
                {
                    "internalType": "uint256",
                    "name": "",
                    "type": "uint256"
                }
            ],
            "stateMutability": "view",
            "type": "function"
        },
        {
            "inputs": [
                {
                    "internalType": "uint256",
                    "name": "_token",
                    "type": "uint256"
                }
            ],
            "name": "recargarPool",
            "outputs": [],
            "stateMutability": "nonpayable",
            "type": "function"
        },
        {
            "inputs": [],
            "name": "redimBNB",
            "outputs": [],
            "stateMutability": "nonpayable",
            "type": "function"
        },
        {
            "inputs": [
                {
                    "internalType": "uint256",
                    "name": "_value",
                    "type": "uint256"
                }
            ],
            "name": "redimCSC",
            "outputs": [],
            "stateMutability": "nonpayable",
            "type": "function"
        },
        {
            "inputs": [],
            "name": "redimOTRO",
            "outputs": [],
            "stateMutability": "nonpayable",
            "type": "function"
        },
        {
            "inputs": [
                {
                    "internalType": "uint256",
                    "name": "_deposito",
                    "type": "uint256"
                }
            ],
            "name": "retiro",
            "outputs": [],
            "stateMutability": "nonpayable",
            "type": "function"
        },
        {
            "inputs": [
                {
                    "internalType": "address",
                    "name": "_user",
                    "type": "address"
                }
            ],
            "name": "retiroDividendos",
            "outputs": [],
            "stateMutability": "nonpayable",
            "type": "function"
        },
        {
            "inputs": [
                {
                    "internalType": "uint256",
                    "name": "_token",
                    "type": "uint256"
                }
            ],
            "name": "staking",
            "outputs": [],
            "stateMutability": "nonpayable",
            "type": "function"
        },
        {
            "inputs": [
                {
                    "internalType": "address",
                    "name": "",
                    "type": "address"
                },
                {
                    "internalType": "uint256",
                    "name": "",
                    "type": "uint256"
                }
            ],
            "name": "tokenInterno",
            "outputs": [
                {
                    "internalType": "uint256",
                    "name": "",
                    "type": "uint256"
                }
            ],
            "stateMutability": "view",
            "type": "function"
        },
        {
            "inputs": [
                {
                    "internalType": "address",
                    "name": "_user",
                    "type": "address"
                }
            ],
            "name": "totalDividendos",
            "outputs": [
                {
                    "internalType": "uint256",
                    "name": "",
                    "type": "uint256"
                }
            ],
            "stateMutability": "view",
            "type": "function"
        },
        {
            "inputs": [
                {
                    "internalType": "address payable",
                    "name": "newOwner",
                    "type": "address"
                }
            ],
            "name": "transferOwnership",
            "outputs": [],
            "stateMutability": "nonpayable",
            "type": "function"
        },
        {
            "inputs": [
                {
                    "internalType": "uint256",
                    "name": "_time",
                    "type": "uint256"
                }
            ],
            "name": "updateDuracion",
            "outputs": [],
            "stateMutability": "nonpayable",
            "type": "function"
        },
        {
            "inputs": [
                {
                    "internalType": "uint256",
                    "name": "_min",
                    "type": "uint256"
                },
                {
                    "internalType": "uint256",
                    "name": "_max",
                    "type": "uint256"
                }
            ],
            "name": "updateMAXMIN",
            "outputs": [],
            "stateMutability": "nonpayable",
            "type": "function"
        },
        {
            "inputs": [
                {
                    "internalType": "uint256",
                    "name": "_time",
                    "type": "uint256"
                }
            ],
            "name": "updateTimeDistribution",
            "outputs": [],
            "stateMutability": "nonpayable",
            "type": "function"
        },
        {
            "inputs": [
                {
                    "internalType": "address",
                    "name": "",
                    "type": "address"
                }
            ],
            "name": "usuarios",
            "outputs": [
                {
                    "internalType": "uint256",
                    "name": "participacion",
                    "type": "uint256"
                }
            ],
            "stateMutability": "view",
            "type": "function"
        },
        {
            "stateMutability": "payable",
            "type": "receive"
        }
    ],
    "bytecode": "60806040526002805473389ccc30de1d311738dffd3f60d4fd6188970f456001600160a01b0319918216811790925560038054909116909117905568048dbbf2f2ecd000006007556911c9a62d04ed0c80000060085562015180600a81905563636963c0600e819055600f55601055601260115534801561007f57600080fd5b50600080546001600160a01b03191633908117825581526001602081905260408220805460ff19169091179055611ace9081906100bc90396000f3fe6080604052600436106102325760003560e01c806395f4f2831161012d578063c4f58954116100b0578063df62f41011610077578063df62f41014610678578063e1e158a51461068e578063f0ede389146106a4578063f2fde38b146106c4578063f6b91ea9146106e4578063fd14d5981461071157005b8063c4f58954146105f6578063d3b5dc3b14610616578063d86bae631461062c578063d8765a9c1461064c578063dd5967c31461066257005b8063ae77652f116100f4578063ae77652f14610554578063b4c48dc814610574578063b5e860a1146105a1578063bc896d53146105b6578063c07f54bc146105d657005b806395f4f283146104be57806396ba5363146104d45780639ef8837e146104f4578063a898a17414610514578063a923c1091461053457005b8063664e9704116101b55780637cb029501161017c5780637cb029501461041b5780638929cbc51461043b57806389ed32b2146104505780638da5cb5b14610466578063926220f81461049e57005b8063664e97041461039057806369ed1e0a146103a557806370a0966b146103c557806372a501ae146103e55780637936f8191461040557005b806333916e77116101f957806333916e77146102da57806334e7c21a146102fa5780633624850e1461031a5780634270e8431461033057806363a846f81461035057005b8063170d3eb61461023b5780631c2f63571461026e5780631dbb2a221461028e5780632fdb8322146102ae578063315a25a1146102c457005b3661023957005b005b34801561024757600080fd5b5061025b6102563660046117d5565b610726565b6040519081526020015b60405180910390f35b34801561027a57600080fd5b5061025b6102893660046117d5565b610757565b34801561029a57600080fd5b506102396102a9366004611801565b610773565b3480156102ba57600080fd5b5061025b600b5481565b3480156102d057600080fd5b5061025b600c5481565b3480156102e657600080fd5b5061025b6102f5366004611801565b610907565b34801561030657600080fd5b5061025b61031536600461181a565b610939565b34801561032657600080fd5b5061025b600e5481565b34801561033c57600080fd5b5061023961034b366004611801565b6109ba565b34801561035c57600080fd5b5061038061036b36600461181a565b60016020526000908152604090205460ff1681565b6040519015158152602001610265565b34801561039c57600080fd5b5061025b6109df565b3480156103b157600080fd5b506102396103c036600461181a565b610a1f565b3480156103d157600080fd5b506102396103e036600461181a565b610aad565b3480156103f157600080fd5b5061025b6104003660046117d5565b610b35565b34801561041157600080fd5b5061025b60105481565b34801561042757600080fd5b5061025b610436366004611801565b610b51565b34801561044757600080fd5b50610239610b70565b34801561045c57600080fd5b5061025b60095481565b34801561047257600080fd5b50600054610486906001600160a01b031681565b6040516001600160a01b039091168152602001610265565b3480156104aa57600080fd5b506102396104b9366004611801565b610c7d565b3480156104ca57600080fd5b5061025b600a5481565b3480156104e057600080fd5b506102396104ef36600461181a565b610ca2565b34801561050057600080fd5b5061023961050f366004611837565b610ce4565b34801561052057600080fd5b5061023961052f36600461181a565b610d0f565b34801561054057600080fd5b5061023961054f36600461181a565b610e7f565b34801561056057600080fd5b5061023961056f366004611801565b610ec1565b34801561058057600080fd5b5061059461058f36600461181a565b610f93565b6040516102659190611859565b3480156105ad57600080fd5b50610239610fff565b3480156105c257600080fd5b506102396105d1366004611801565b61107f565b3480156105e257600080fd5b506102396105f1366004611801565b6113e5565b34801561060257600080fd5b5061025b61061136600461181a565b61147b565b34801561062257600080fd5b5061025b60115481565b34801561063857600080fd5b5061059461064736600461181a565b6114d7565b34801561065857600080fd5b5061025b600d5481565b34801561066e57600080fd5b5061025b60085481565b34801561068457600080fd5b5061025b600f5481565b34801561069a57600080fd5b5061025b60075481565b3480156106b057600080fd5b506102396106bf366004611801565b61162a565b3480156106d057600080fd5b506102396106df36600461181a565b61164f565b3480156106f057600080fd5b5061025b6106ff36600461181a565b60126020526000908152604090205481565b34801561071d57600080fd5b506102396116dd565b6004602052816000526040600020818154811061074257600080fd5b90600052602060002001600091509150505481565b6005602052816000526040600020818154811061074257600080fd5b600e5442101561078257600080fd5b60075481101561079157600080fd5b6008548161079e33610939565b6107a891906118b3565b11156107b357600080fd5b6002546040516323b872dd60e01b8152336004820152306024820152604481018390526001600160a01b03909116906323b872dd906064016020604051808303816000875af115801561080a573d6000803e3d6000fd5b505050506040513d601f19601f8201168201806040525081019061082e91906118c6565b61083757600080fd5b33600090815260056020526040902061084f82610b51565b8154600181018355600092835260209092209091015561086e81610b51565b600c600082825461087f91906118b3565b9250508190555080600d600082825461089891906118b3565b90915550503360009081526006602052604090206010546108b990426118b3565b81546001818101845560009384526020808520909201929092553383526004815260408320805492830181558352822001829055600b80548392906108ff9084906118b3565b909155505050565b6000610933601154600a61091b91906119cc565b61092d6109266109df565b8590611747565b90611783565b92915050565b60008060005b6001600160a01b0384166000908152600460205260409020548110156109b3576001600160a01b0384166000908152600460205260409020805482908110610989576109896119d8565b90600052602060002001548261099f91906118b3565b9150806109ab816119ee565b91505061093f565b5092915050565b6000546001600160a01b0316336001600160a01b0316146109da57600080fd5b600a55565b6000600c546000036109fe576011546109f990600a6119cc565b905090565b6109f9600c5461092d601154600a610a1691906119cc565b600d5490611747565b6000546001600160a01b0316336001600160a01b031614610a3f57600080fd5b6001600160a01b038116610a5257600080fd5b6040516001600160a01b038216907f71614071b88dee5e0b2ae578a9dd7b2ebbe9ae832ba419dc0242cd065a290b6c90600090a26001600160a01b03166000908152600160208190526040909120805460ff19169091179055565b6000546001600160a01b0316336001600160a01b031614610acd57600080fd5b6001600160a01b038116610ae057600080fd5b6040516001600160a01b038216907fa3b62bc36326052d97ea62d63c3d60308ed4c3ea8ac079dd8499f1e9c4f80c0f90600090a26001600160a01b03166000908152600160205260409020805460ff19169055565b6006602052816000526040600020818154811061074257600080fd5b6000610933610b5e6109df565b61092d601154600a61092691906119cc565b6000546001600160a01b0316336001600160a01b031614610b9057600080fd5b6003546040516370a0823160e01b81523060048201526000916001600160a01b0316906370a0823190602401602060405180830381865afa158015610bd9573d6000803e3d6000fd5b505050506040513d601f19601f82011682018060405250810190610bfd9190611a07565b60035460005460405163a9059cbb60e01b81526001600160a01b03918216600482015260248101849052929350169063a9059cbb906044015b6020604051808303816000875af1158015610c55573d6000803e3d6000fd5b505050506040513d601f19601f82011682018060405250810190610c7991906118c6565b5050565b6000546001600160a01b0316336001600160a01b031614610c9d57600080fd5b600e55565b6000546001600160a01b0316336001600160a01b031614610cc257600080fd5b600380546001600160a01b0319166001600160a01b0392909216919091179055565b6000546001600160a01b0316336001600160a01b031614610d0457600080fd5b600791909155600855565b6000610d1a8261147b565b90506000610d2a6102f58461147b565b60025460405163a9059cbb60e01b81526001600160a01b0386811660048301526024820184905292935091169063a9059cbb906044016020604051808303816000875af1158015610d7f573d6000803e3d6000fd5b505050506040513d601f19601f82011682018060405250810190610da391906118c6565b610dac57600080fd5b60005b610db8846114d7565b51811015610e4957610dc9846114d7565b8181518110610dda57610dda6119d8565b602002602001015160056000866001600160a01b03166001600160a01b031681526020019081526020016000208281548110610e1857610e186119d8565b906000526020600020016000828254610e319190611a20565b90915550819050610e41816119ee565b915050610daf565b5081600c6000828254610e5c9190611a20565b9250508190555080600d6000828254610e759190611a20565b9091555050505050565b6000546001600160a01b0316336001600160a01b031614610e9f57600080fd5b600280546001600160a01b0319166001600160a01b0392909216919091179055565b6000546001600160a01b0316336001600160a01b031614610ee157600080fd5b6002546040516370a0823160e01b815230600482015282916001600160a01b0316906370a0823190602401602060405180830381865afa158015610f29573d6000803e3d6000fd5b505050506040513d601f19601f82011682018060405250810190610f4d9190611a07565b1015610f5857600080fd5b60025460005460405163a9059cbb60e01b81526001600160a01b0391821660048201526024810184905291169063a9059cbb90604401610c36565b6001600160a01b038116600090815260046020908152604091829020805483518184028101840190945280845260609392830182828015610ff357602002820191906000526020600020905b815481526020019060010190808311610fdf575b50505050509050919050565b600a54600f5461100f91906118b3565b421061107a576000611032606461092d600260095461174790919063ffffffff16565b905080600960008282546110469190611a20565b9250508190555080600d600082825461105f91906118b3565b9091555050600a54600f5461107491906118b3565b600f5550565b600080fd5b3360009081526006602052604090208054429190839081106110a3576110a36119d8565b906000526020600020015411156110b957600080fd5b33600090815260056020526040812080546110ef9190849081106110df576110df6119d8565b9060005260206000200154610907565b60025460405163a9059cbb60e01b8152336004820152602481018390529192506001600160a01b03169063a9059cbb906044016020604051808303816000875af1158015611141573d6000803e3d6000fd5b505050506040513d601f19601f8201168201806040525081019061116591906118c6565b61116e57600080fd5b33600090815260056020526040902080548390811061118f5761118f6119d8565b9060005260206000200154600c60008282546111ab9190611a20565b9250508190555080600d60008282546111c49190611a20565b90915550503360009081526004602052604090208054839081106111ea576111ea6119d8565b9060005260206000200154600b60008282546112069190611a20565b9091555050336000908152600560205260409020805461122890600190611a20565b81548110611238576112386119d8565b600091825260208083209091015433835260059091526040909120805484908110611265576112656119d8565b600091825260208083209091019290925533815260059091526040902080548061129157611291611a33565b600082815260208082208301600019908101839055909201909255338252600490526040902080546112c590600190611a20565b815481106112d5576112d56119d8565b600091825260208083209091015433835260049091526040909120805484908110611302576113026119d8565b600091825260208083209091019290925533815260049091526040902080548061132e5761132e611a33565b6000828152602080822083016000199081018390559092019092553382526006905260409020805461136290600190611a20565b81548110611372576113726119d8565b60009182526020808320909101543383526006909152604090912080548490811061139f5761139f6119d8565b60009182526020808320909101929092553381526006909152604090208054806113cb576113cb611a33565b600190038181906000526020600020016000905590555050565b6002546040516323b872dd60e01b8152336004820152306024820152604481018390526001600160a01b03909116906323b872dd906064016020604051808303816000875af115801561143c573d6000803e3d6000fd5b505050506040513d601f19601f8201168201806040525081019061146091906118c6565b61146957600080fd5b80600960008282546108ff91906118b3565b600080611487836114d7565b90506000805b82518110156114cf578281815181106114a8576114a86119d8565b6020026020010151826114bb91906118b3565b9150806114c7816119ee565b91505061148d565b509392505050565b6001600160a01b038116600090815260056020908152604080832080548251818502810185019093528083526060949383018282801561153657602002820191906000526020600020905b815481526020019060010190808311611522575b505050505090506000815167ffffffffffffffff81111561155957611559611a49565b604051908082528060200260200182016040528015611582578160200160208202803683370190505b50905060005b82518110156114cf576001600160a01b038516600090815260046020526040902080546115fb916115d391849081106115c3576115c36119d8565b9060005260206000200154610b51565b8483815181106115e5576115e56119d8565b60200260200101516117a590919063ffffffff16565b82828151811061160d5761160d6119d8565b602090810291909101015280611622816119ee565b915050611588565b6000546001600160a01b0316336001600160a01b03161461164a57600080fd5b601055565b6000546001600160a01b0316336001600160a01b03161461166f57600080fd5b6001600160a01b03811661168257600080fd5b600080546040516001600160a01b03808516939216917f8be0079c531659141344cd1fd0a4f28419497f9722a3daafe3b4186f6b6457e091a3600080546001600160a01b0319166001600160a01b0392909216919091179055565b6000546001600160a01b0316336001600160a01b0316146116fd57600080fd5b4760000361170a57600080fd5b600080546040516001600160a01b03909116914780156108fc02929091818181858888f19350505050158015611744573d6000803e3d6000fd5b50565b60008260000361175957506000610933565b60006117658385611a5f565b9050826117728583611a76565b1461177c57600080fd5b9392505050565b600080821161179157600080fd5b600061179d8385611a76565b949350505050565b6000828211156117b457600080fd5b600061179d8385611a20565b6001600160a01b038116811461174457600080fd5b600080604083850312156117e857600080fd5b82356117f3816117c0565b946020939093013593505050565b60006020828403121561181357600080fd5b5035919050565b60006020828403121561182c57600080fd5b813561177c816117c0565b6000806040838503121561184a57600080fd5b50508035926020909101359150565b6020808252825182820181905260009190848201906040850190845b8181101561189157835183529284019291840191600101611875565b50909695505050505050565b634e487b7160e01b600052601160045260246000fd5b808201808211156109335761093361189d565b6000602082840312156118d857600080fd5b8151801515811461177c57600080fd5b600181815b808511156119235781600019048211156119095761190961189d565b8085161561191657918102915b93841c93908002906118ed565b509250929050565b60008261193a57506001610933565b8161194757506000610933565b816001811461195d576002811461196757611983565b6001915050610933565b60ff8411156119785761197861189d565b50506001821b610933565b5060208310610133831016604e8410600b84101617156119a6575081810a610933565b6119b083836118e8565b80600019048211156119c4576119c461189d565b029392505050565b600061177c838361192b565b634e487b7160e01b600052603260045260246000fd5b600060018201611a0057611a0061189d565b5060010190565b600060208284031215611a1957600080fd5b5051919050565b818103818111156109335761093361189d565b634e487b7160e01b600052603160045260246000fd5b634e487b7160e01b600052604160045260246000fd5b80820281158282048414176109335761093361189d565b600082611a9357634e487b7160e01b600052601260045260246000fd5b50049056fea2646970667358221220b4dde3f4d8abb27a4acd983b05233a47e75a9613ffb19d5fd22ee1d5839f956364736f6c63430008110033",
    "sourcePath": "c:/Users/STC/Documents/GitHub/goal-crypto/contracts/Staking/staking-deposito.sol",
    "compiler": {
        "name": "solc",
        "version": "0.8.17+commit.8df45f5f"
    },
    "functionHashes": {
        "ChangeToken(address)": "a923c109",
        "ChangeTokenOTRO(address)": "96ba5363",
        "DISTRIBUTION_POOL()": "89ed32b2",
        "MAX_DEPOSIT()": "dd5967c3",
        "MIN_DEPOSIT()": "e1e158a5",
        "PAYER_POOL_BALANCE()": "d8765a9c",
        "RATE()": "664e9704",
        "TIME_DISTRIBUTION()": "95f4f283",
        "TOTAL_PARTICIPACIONES()": "315a25a1",
        "TOTAL_STAKING()": "2fdb8322",
        "actualizarFechas(uint256)": "926220f8",
        "admin(address)": "63a846f8",
        "compra(uint256)": "7cb02950",
        "deposito(address,uint256)": "170d3eb6",
        "depositoTotal(address)": "b4c48dc8",
        "depositoTotalToken(address)": "34e7c21a",
        "dividendos(address)": "d86bae63",
        "duracion()": "7936f819",
        "fecha(address,uint256)": "72a501ae",
        "inicio()": "3624850e",
        "lastPay()": "df62f410",
        "makeNewAdmin(address)": "69ed1e0a",
        "makeRemoveAdmin(address)": "70a0966b",
        "owner()": "8da5cb5b",
        "pagarDividendos()": "b5e860a1",
        "pago(uint256)": "33916e77",
        "precision()": "d3b5dc3b",
        "recargarPool(uint256)": "c07f54bc",
        "redimBNB()": "fd14d598",
        "redimCSC(uint256)": "ae77652f",
        "redimOTRO()": "8929cbc5",
        "retiro(uint256)": "bc896d53",
        "retiroDividendos(address)": "a898a174",
        "staking(uint256)": "1dbb2a22",
        "tokenInterno(address,uint256)": "1c2f6357",
        "totalDividendos(address)": "c4f58954",
        "transferOwnership(address)": "f2fde38b",
        "updateDuracion(uint256)": "f0ede389",
        "updateMAXMIN(uint256,uint256)": "9ef8837e",
        "updateTimeDistribution(uint256)": "4270e843",
        "usuarios(address)": "f6b91ea9"
    },
    "gasEstimates": {
        "creation": {
            "codeDepositCost": "1372400",
            "executionCost": "253194",
            "totalCost": "1625594"
        },
        "external": {
            "": "230",
            "ChangeToken(address)": "26857",
            "ChangeTokenOTRO(address)": "26791",
            "DISTRIBUTION_POOL()": "2373",
            "MAX_DEPOSIT()": "2417",
            "MIN_DEPOSIT()": "2350",
            "PAYER_POOL_BALANCE()": "2395",
            "RATE()": "infinite",
            "TIME_DISTRIBUTION()": "2330",
            "TOTAL_PARTICIPACIONES()": "2419",
            "TOTAL_STAKING()": "2397",
            "actualizarFechas(uint256)": "24615",
            "admin(address)": "2659",
            "compra(uint256)": "infinite",
            "deposito(address,uint256)": "4774",
            "depositoTotal(address)": "infinite",
            "depositoTotalToken(address)": "infinite",
            "dividendos(address)": "infinite",
            "duracion()": "2418",
            "fecha(address,uint256)": "4839",
            "inicio()": "2374",
            "lastPay()": "2328",
            "makeNewAdmin(address)": "28044",
            "makeRemoveAdmin(address)": "28048",
            "owner()": "2448",
            "pagarDividendos()": "infinite",
            "pago(uint256)": "infinite",
            "precision()": "2351",
            "recargarPool(uint256)": "infinite",
            "redimBNB()": "infinite",
            "redimCSC(uint256)": "infinite",
            "redimOTRO()": "infinite",
            "retiro(uint256)": "infinite",
            "retiroDividendos(address)": "infinite",
            "staking(uint256)": "infinite",
            "tokenInterno(address,uint256)": "4796",
            "totalDividendos(address)": "infinite",
            "transferOwnership(address)": "30522",
            "updateDuracion(uint256)": "24570",
            "updateMAXMIN(uint256,uint256)": "46707",
            "updateTimeDistribution(uint256)": "24594",
            "usuarios(address)": "2634"
        }
    }
}